{
  "_format": "hh-sol-artifact-1",
  "contractName": "Logic",
  "sourceName": "contracts/Logic.sol",
  "abi": [
    {
      "inputs": [
        {
          "internalType": "address",
          "name": "_tokenERC20",
          "type": "address"
        },
        {
          "internalType": "address",
          "name": "_nft",
          "type": "address"
        }
      ],
      "stateMutability": "nonpayable",
      "type": "constructor"
    },
    {
      "anonymous": false,
      "inputs": [
        {
          "indexed": true,
          "internalType": "address",
          "name": "user",
          "type": "address"
        },
        {
          "indexed": false,
          "internalType": "uint256",
          "name": "amount",
          "type": "uint256"
        },
        {
          "indexed": false,
          "internalType": "uint256",
          "name": "depositTime",
          "type": "uint256"
        }
      ],
      "name": "Deposit",
      "type": "event"
    },
    {
      "anonymous": false,
      "inputs": [
        {
          "indexed": true,
          "internalType": "address",
          "name": "user",
          "type": "address"
        },
        {
          "indexed": false,
          "internalType": "uint256",
          "name": "tokenId",
          "type": "uint256"
        }
      ],
      "name": "MintNFT",
      "type": "event"
    },
    {
      "anonymous": false,
      "inputs": [
        {
          "indexed": true,
          "internalType": "address",
          "name": "user",
          "type": "address"
        },
        {
          "indexed": false,
          "internalType": "uint256",
          "name": "amount",
          "type": "uint256"
        },
        {
          "indexed": false,
          "internalType": "uint256",
          "name": "reward",
          "type": "uint256"
        },
        {
          "indexed": false,
          "internalType": "uint256",
          "name": "timestamp",
          "type": "uint256"
        }
      ],
      "name": "Withdraw",
      "type": "event"
    },
    {
      "inputs": [],
      "name": "INTEREST_RATE",
      "outputs": [
        {
          "internalType": "uint256",
          "name": "",
          "type": "uint256"
        }
      ],
      "stateMutability": "view",
      "type": "function"
    },
    {
      "inputs": [],
      "name": "INTEREST_RATE_INCREMENT",
      "outputs": [
        {
          "internalType": "uint256",
          "name": "",
          "type": "uint256"
        }
      ],
      "stateMutability": "view",
      "type": "function"
    },
    {
      "inputs": [],
      "name": "LOCK_TIME",
      "outputs": [
        {
          "internalType": "uint256",
          "name": "",
          "type": "uint256"
        }
      ],
      "stateMutability": "view",
      "type": "function"
    },
    {
      "inputs": [],
      "name": "NFT_THRESHOLD",
      "outputs": [
        {
          "internalType": "uint256",
          "name": "",
          "type": "uint256"
        }
      ],
      "stateMutability": "view",
      "type": "function"
    },
    {
      "inputs": [
        {
          "internalType": "address",
          "name": "spender",
          "type": "address"
        }
      ],
      "name": "calculateInterest",
      "outputs": [
        {
          "internalType": "uint256",
          "name": "",
          "type": "uint256"
        }
      ],
      "stateMutability": "view",
      "type": "function"
    },
    {
      "inputs": [],
      "name": "claimReward",
      "outputs": [],
      "stateMutability": "nonpayable",
      "type": "function"
    },
    {
      "inputs": [
        {
          "internalType": "uint256",
          "name": "amount",
          "type": "uint256"
        }
      ],
      "name": "deposit",
      "outputs": [],
      "stateMutability": "nonpayable",
      "type": "function"
    },
    {
      "inputs": [
        {
          "internalType": "uint256",
          "name": "tokenId",
          "type": "uint256"
        }
      ],
      "name": "depositNFT",
      "outputs": [],
      "stateMutability": "nonpayable",
      "type": "function"
    },
    {
      "inputs": [
        {
          "internalType": "address",
          "name": "user",
          "type": "address"
        }
      ],
      "name": "getDepositAmount",
      "outputs": [
        {
          "internalType": "uint256",
          "name": "",
          "type": "uint256"
        }
      ],
      "stateMutability": "view",
      "type": "function"
    },
    {
      "inputs": [
        {
          "internalType": "address",
          "name": "user",
          "type": "address"
        }
      ],
      "name": "getDepositedNFTCount",
      "outputs": [
        {
          "internalType": "uint256",
          "name": "",
          "type": "uint256"
        }
      ],
      "stateMutability": "view",
      "type": "function"
    },
    {
      "inputs": [
        {
          "internalType": "address",
          "name": "user",
          "type": "address"
        }
      ],
      "name": "getInterestRate",
      "outputs": [
        {
          "internalType": "uint256",
          "name": "",
          "type": "uint256"
        }
      ],
      "stateMutability": "view",
      "type": "function"
    },
    {
      "inputs": [],
      "name": "nft",
      "outputs": [
        {
          "internalType": "contract MyTokenERC721",
          "name": "",
          "type": "address"
        }
      ],
      "stateMutability": "view",
      "type": "function"
    },
    {
      "inputs": [],
      "name": "owner",
      "outputs": [
        {
          "internalType": "address",
          "name": "",
          "type": "address"
        }
      ],
      "stateMutability": "view",
      "type": "function"
    },
    {
      "inputs": [],
      "name": "tokenERC20",
      "outputs": [
        {
          "internalType": "contract MyTokenERC20",
          "name": "",
          "type": "address"
        }
      ],
      "stateMutability": "view",
      "type": "function"
    },
    {
      "inputs": [
        {
          "internalType": "address",
          "name": "",
          "type": "address"
        }
      ],
      "name": "users",
      "outputs": [
        {
          "internalType": "uint256",
          "name": "depositAmount",
          "type": "uint256"
        },
        {
          "internalType": "uint256",
          "name": "depositTime",
          "type": "uint256"
        },
        {
          "internalType": "uint256",
          "name": "interestRate",
          "type": "uint256"
        },
        {
          "internalType": "uint256",
          "name": "nftCount",
          "type": "uint256"
        }
      ],
      "stateMutability": "view",
      "type": "function"
    },
    {
      "inputs": [],
      "name": "withdraw",
      "outputs": [],
      "stateMutability": "nonpayable",
      "type": "function"
    },
    {
      "inputs": [
        {
          "internalType": "uint256",
          "name": "tokenId",
          "type": "uint256"
        }
      ],
      "name": "withdrawNFT",
      "outputs": [],
      "stateMutability": "nonpayable",
      "type": "function"
    }
  ],
  "bytecode": "0x60806040523480156200001157600080fd5b50604051620019b5380380620019b583398181016040528101906200003791906200016b565b816000806101000a81548173ffffffffffffffffffffffffffffffffffffffff021916908373ffffffffffffffffffffffffffffffffffffffff16021790555080600160006101000a81548173ffffffffffffffffffffffffffffffffffffffff021916908373ffffffffffffffffffffffffffffffffffffffff16021790555033600260006101000a81548173ffffffffffffffffffffffffffffffffffffffff021916908373ffffffffffffffffffffffffffffffffffffffff1602179055505050620001b2565b600080fd5b600073ffffffffffffffffffffffffffffffffffffffff82169050919050565b6000620001338262000106565b9050919050565b620001458162000126565b81146200015157600080fd5b50565b60008151905062000165816200013a565b92915050565b6000806040838503121562000185576200018462000101565b5b6000620001958582860162000154565b9250506020620001a88582860162000154565b9150509250929050565b6117f380620001c26000396000f3fe608060405234801561001057600080fd5b506004361061010b5760003560e01c80639d143e8e116100a2578063b8ba16fd11610071578063b8ba16fd14610273578063c04757b5146102a3578063d3ea0f89146102c1578063e11932cf146102f1578063e91a7ca6146103215761010b565b80639d143e8e146101fc578063a87430ba1461021a578063b6b55f251461024d578063b88a802f146102695761010b565b806347ccca02116100de57806347ccca02146101845780635b72a33a146101a25780638da5cb5b146101c057806393c49484146101de5761010b565b8063023245d71461011057806311de2bb21461012c5780633ccfd60b1461015c578063413d9c3a14610166575b600080fd5b61012a60048036038101906101259190610feb565b61033d565b005b61014660048036038101906101419190611076565b61049d565b60405161015391906110b2565b60405180910390f35b6101646104e9565b005b61016e6107bf565b60405161017b91906110b2565b60405180910390f35b61018c6107c5565b604051610199919061112c565b60405180910390f35b6101aa6107eb565b6040516101b791906110b2565b60405180910390f35b6101c86107f0565b6040516101d59190611156565b60405180910390f35b6101e6610816565b6040516101f391906110b2565b60405180910390f35b610204610824565b6040516102119190611192565b60405180910390f35b610234600480360381019061022f9190611076565b610848565b60405161024494939291906111ad565b60405180910390f35b61026760048036038101906102629190610feb565b610878565b005b610271610ab3565b005b61028d60048036038101906102889190611076565b610c8d565b60405161029a91906110b2565b60405180910390f35b6102ab610cd9565b6040516102b891906110b2565b60405180910390f35b6102db60048036038101906102d69190611076565b610cde565b6040516102e891906110b2565b60405180910390f35b61030b60048036038101906103069190611076565b610d2a565b60405161031891906110b2565b60405180910390f35b61033b60048036038101906103369190610feb565b610df2565b005b6000600360003373ffffffffffffffffffffffffffffffffffffffff1673ffffffffffffffffffffffffffffffffffffffff168152602001908152602001600020905060008160030154116103c7576040517f08c379a00000000000000000000000000000000000000000000000000000000081526004016103be9061124f565b60405180910390fd5b600160009054906101000a900473ffffffffffffffffffffffffffffffffffffffff1673ffffffffffffffffffffffffffffffffffffffff166323b872dd3033856040518463ffffffff1660e01b81526004016104269392919061126f565b600060405180830381600087803b15801561044057600080fd5b505af1158015610454573d6000803e3d6000fd5b50505050600181600301600082825461046d91906112d5565b92505081905550806003015460026104859190611309565b6008610491919061134b565b81600201819055505050565b6000600360008373ffffffffffffffffffffffffffffffffffffffff1673ffffffffffffffffffffffffffffffffffffffff168152602001908152602001600020600301549050919050565b6000600360003373ffffffffffffffffffffffffffffffffffffffff1673ffffffffffffffffffffffffffffffffffffffff16815260200190815260200160002090506000816000015411610573576040517f08c379a000000000000000000000000000000000000000000000000000000000815260040161056a906113cb565b60405180910390fd5b61012c8160010154610585919061134b565b4210156105c7576040517f08c379a00000000000000000000000000000000000000000000000000000000081526004016105be90611437565b60405180910390fd5b60006105d233610d2a565b905060008054906101000a900473ffffffffffffffffffffffffffffffffffffffff1673ffffffffffffffffffffffffffffffffffffffff166323b872dd600260009054906101000a900473ffffffffffffffffffffffffffffffffffffffff1633846040518463ffffffff1660e01b81526004016106539392919061126f565b6020604051808303816000875af1158015610672573d6000803e3d6000fd5b505050506040513d601f19601f82011682018060405250810190610696919061148f565b5060008183600001546106a9919061134b565b905060008054906101000a900473ffffffffffffffffffffffffffffffffffffffff1673ffffffffffffffffffffffffffffffffffffffff1663a9059cbb33836040518363ffffffff1660e01b81526004016107069291906114bc565b6020604051808303816000875af1158015610725573d6000803e3d6000fd5b505050506040513d601f19601f82011682018060405250810190610749919061148f565b503373ffffffffffffffffffffffffffffffffffffffff167f02f25270a4d87bea75db541cdfe559334a275b4a233520ed6c0a2429667cca94828442604051610794939291906114e5565b60405180910390a2600083600001819055506000836001018190555060008360020181905550505050565b61012c81565b600160009054906101000a900473ffffffffffffffffffffffffffffffffffffffff1681565b600881565b600260009054906101000a900473ffffffffffffffffffffffffffffffffffffffff1681565b69d3c21bcecceda100000081565b60008054906101000a900473ffffffffffffffffffffffffffffffffffffffff1681565b60036020528060005260406000206000915090508060000154908060010154908060020154908060030154905084565b600081116108bb576040517f08c379a00000000000000000000000000000000000000000000000000000000081526004016108b29061158e565b60405180910390fd5b6000600360003373ffffffffffffffffffffffffffffffffffffffff1673ffffffffffffffffffffffffffffffffffffffff16815260200190815260200160002090506000816003015460026109119190611309565b600861091d919061134b565b905060008054906101000a900473ffffffffffffffffffffffffffffffffffffffff1673ffffffffffffffffffffffffffffffffffffffff166323b872dd3330866040518463ffffffff1660e01b815260040161097c9392919061126f565b6020604051808303816000875af115801561099b573d6000803e3d6000fd5b505050506040513d601f19601f820116820180604052508101906109bf919061148f565b50828260000160008282546109d4919061134b565b925050819055504282600101819055508082600201819055503373ffffffffffffffffffffffffffffffffffffffff167f90890809c654f11d6e72a28fa60149770a0d11ec6c92319d6ceb2bb0a4ea1a158442604051610a359291906115ae565b60405180910390a269d3c21bcecceda1000000826000015410610aae576000610a5c610f0b565b90503373ffffffffffffffffffffffffffffffffffffffff167f1f89f147a58d1673945cf416187db98efc8208408c011b91887acd59fd8523c382604051610aa491906110b2565b60405180910390a2505b505050565b6000600360003373ffffffffffffffffffffffffffffffffffffffff1673ffffffffffffffffffffffffffffffffffffffff16815260200190815260200160002090506000816000015411610b3d576040517f08c379a0000000000000000000000000000000000000000000000000000000008152600401610b3490611623565b60405180910390fd5b61012c8160010154610b4f919061134b565b421015610b91576040517f08c379a0000000000000000000000000000000000000000000000000000000008152600401610b889061168f565b60405180910390fd5b6000610b9c33610d2a565b905060008111610be1576040517f08c379a0000000000000000000000000000000000000000000000000000000008152600401610bd8906116fb565b60405180910390fd5b60008054906101000a900473ffffffffffffffffffffffffffffffffffffffff1673ffffffffffffffffffffffffffffffffffffffff1663a9059cbb33836040518363ffffffff1660e01b8152600401610c3c9291906114bc565b6020604051808303816000875af1158015610c5b573d6000803e3d6000fd5b505050506040513d601f19601f82011682018060405250810190610c7f919061148f565b504282600101819055505050565b6000600360008373ffffffffffffffffffffffffffffffffffffffff1673ffffffffffffffffffffffffffffffffffffffff168152602001908152602001600020600001549050919050565b600281565b6000600360008373ffffffffffffffffffffffffffffffffffffffff1673ffffffffffffffffffffffffffffffffffffffff168152602001908152602001600020600201549050919050565b600080600360008473ffffffffffffffffffffffffffffffffffffffff1673ffffffffffffffffffffffffffffffffffffffff16815260200190815260200160002060405180608001604052908160008201548152602001600182015481526020016002820154815260200160038201548152505090506000816020015142610db391906112d5565b9050600063bbf81e008284604001518560000151610dd19190611309565b610ddb9190611309565b610de5919061174a565b9050809350505050919050565b6000600360003373ffffffffffffffffffffffffffffffffffffffff1673ffffffffffffffffffffffffffffffffffffffff1681526020019081526020016000209050600160009054906101000a900473ffffffffffffffffffffffffffffffffffffffff1673ffffffffffffffffffffffffffffffffffffffff166323b872dd3330856040518463ffffffff1660e01b8152600401610e949392919061126f565b600060405180830381600087803b158015610eae57600080fd5b505af1158015610ec2573d6000803e3d6000fd5b505050506001816003016000828254610edb919061134b565b9250508190555080600301546002610ef39190611309565b6008610eff919061134b565b81600201819055505050565b6000600160009054906101000a900473ffffffffffffffffffffffffffffffffffffffff1673ffffffffffffffffffffffffffffffffffffffff16636a627842336040518263ffffffff1660e01b8152600401610f689190611156565b6020604051808303816000875af1158015610f87573d6000803e3d6000fd5b505050506040513d601f19601f82011682018060405250810190610fab9190611790565b905090565b600080fd5b6000819050919050565b610fc881610fb5565b8114610fd357600080fd5b50565b600081359050610fe581610fbf565b92915050565b60006020828403121561100157611000610fb0565b5b600061100f84828501610fd6565b91505092915050565b600073ffffffffffffffffffffffffffffffffffffffff82169050919050565b600061104382611018565b9050919050565b61105381611038565b811461105e57600080fd5b50565b6000813590506110708161104a565b92915050565b60006020828403121561108c5761108b610fb0565b5b600061109a84828501611061565b91505092915050565b6110ac81610fb5565b82525050565b60006020820190506110c760008301846110a3565b92915050565b6000819050919050565b60006110f26110ed6110e884611018565b6110cd565b611018565b9050919050565b6000611104826110d7565b9050919050565b6000611116826110f9565b9050919050565b6111268161110b565b82525050565b6000602082019050611141600083018461111d565b92915050565b61115081611038565b82525050565b600060208201905061116b6000830184611147565b92915050565b600061117c826110f9565b9050919050565b61118c81611171565b82525050565b60006020820190506111a76000830184611183565b92915050565b60006080820190506111c260008301876110a3565b6111cf60208301866110a3565b6111dc60408301856110a3565b6111e960608301846110a3565b95945050505050565b600082825260208201905092915050565b7f4e6f204e46547320746f20776974686472617700000000000000000000000000600082015250565b60006112396013836111f2565b915061124482611203565b602082019050919050565b600060208201905081810360008301526112688161122c565b9050919050565b60006060820190506112846000830186611147565b6112916020830185611147565b61129e60408301846110a3565b949350505050565b7f4e487b7100000000000000000000000000000000000000000000000000000000600052601160045260246000fd5b60006112e082610fb5565b91506112eb83610fb5565b9250828203905081811115611303576113026112a6565b5b92915050565b600061131482610fb5565b915061131f83610fb5565b925082820261132d81610fb5565b91508282048414831517611344576113436112a6565b5b5092915050565b600061135682610fb5565b915061136183610fb5565b9250828201905080821115611379576113786112a6565b5b92915050565b7f4e6f206465706f73697420746f20776974686472617700000000000000000000600082015250565b60006113b56016836111f2565b91506113c08261137f565b602082019050919050565b600060208201905081810360008301526113e4816113a8565b9050919050565b7f4c6f636b2074696d65206e6f7420706173736564000000000000000000000000600082015250565b60006114216014836111f2565b915061142c826113eb565b602082019050919050565b6000602082019050818103600083015261145081611414565b9050919050565b60008115159050919050565b61146c81611457565b811461147757600080fd5b50565b60008151905061148981611463565b92915050565b6000602082840312156114a5576114a4610fb0565b5b60006114b38482850161147a565b91505092915050565b60006040820190506114d16000830185611147565b6114de60208301846110a3565b9392505050565b60006060820190506114fa60008301866110a3565b61150760208301856110a3565b61151460408301846110a3565b949350505050565b7f4465706f73697420616d6f756e742073686f756c64206265206772656174657260008201527f207468616e203000000000000000000000000000000000000000000000000000602082015250565b60006115786027836111f2565b91506115838261151c565b604082019050919050565b600060208201905081810360008301526115a78161156b565b9050919050565b60006040820190506115c360008301856110a3565b6115d060208301846110a3565b9392505050565b7f616d6f756e74206d7573742062652067726561746572207468616e207a65726f600082015250565b600061160d6020836111f2565b9150611618826115d7565b602082019050919050565b6000602082019050818103600083015261163c81611600565b9050919050565b7f546f6b656e7320617265206c6f636b6564000000000000000000000000000000600082015250565b60006116796011836111f2565b915061168482611643565b602082019050919050565b600060208201905081810360008301526116a88161166c565b9050919050565b7f4e6f20696e746572657374206163637275656400000000000000000000000000600082015250565b60006116e56013836111f2565b91506116f0826116af565b602082019050919050565b60006020820190508181036000830152611714816116d8565b9050919050565b7f4e487b7100000000000000000000000000000000000000000000000000000000600052601260045260246000fd5b600061175582610fb5565b915061176083610fb5565b9250826117705761176f61171b565b5b828204905092915050565b60008151905061178a81610fbf565b92915050565b6000602082840312156117a6576117a5610fb0565b5b60006117b48482850161177b565b9150509291505056fea264697066735822122069d2e10d469586d46a405ae0c805ac2d15ecb9ec1f18f0affddfe2b7bcec74dd64736f6c63430008140033",
  "linkReferences": {},
  "deployedLinkReferences": {}
}