{
  "_format": "hh-sol-artifact-1",
  "contractName": "MyTokenERC20",
  "sourceName": "contracts/MyERC20.sol",
  "abi": [
    {
      "inputs": [],
      "stateMutability": "nonpayable",
      "type": "constructor"
    },
    {
      "inputs": [
        {
          "internalType": "address",
          "name": "spender",
          "type": "address"
        },
        {
          "internalType": "uint256",
          "name": "allowance",
          "type": "uint256"
        },
        {
          "internalType": "uint256",
          "name": "needed",
          "type": "uint256"
        }
      ],
      "name": "ERC20InsufficientAllowance",
      "type": "error"
    },
    {
      "inputs": [
        {
          "internalType": "address",
          "name": "sender",
          "type": "address"
        },
        {
          "internalType": "uint256",
          "name": "balance",
          "type": "uint256"
        },
        {
          "internalType": "uint256",
          "name": "needed",
          "type": "uint256"
        }
      ],
      "name": "ERC20InsufficientBalance",
      "type": "error"
    },
    {
      "inputs": [
        {
          "internalType": "address",
          "name": "approver",
          "type": "address"
        }
      ],
      "name": "ERC20InvalidApprover",
      "type": "error"
    },
    {
      "inputs": [
        {
          "internalType": "address",
          "name": "receiver",
          "type": "address"
        }
      ],
      "name": "ERC20InvalidReceiver",
      "type": "error"
    },
    {
      "inputs": [
        {
          "internalType": "address",
          "name": "sender",
          "type": "address"
        }
      ],
      "name": "ERC20InvalidSender",
      "type": "error"
    },
    {
      "inputs": [
        {
          "internalType": "address",
          "name": "spender",
          "type": "address"
        }
      ],
      "name": "ERC20InvalidSpender",
      "type": "error"
    },
    {
      "inputs": [
        {
          "internalType": "address",
          "name": "owner",
          "type": "address"
        }
      ],
      "name": "OwnableInvalidOwner",
      "type": "error"
    },
    {
      "inputs": [
        {
          "internalType": "address",
          "name": "account",
          "type": "address"
        }
      ],
      "name": "OwnableUnauthorizedAccount",
      "type": "error"
    },
    {
      "anonymous": false,
      "inputs": [
        {
          "indexed": true,
          "internalType": "address",
          "name": "owner",
          "type": "address"
        },
        {
          "indexed": true,
          "internalType": "address",
          "name": "spender",
          "type": "address"
        },
        {
          "indexed": false,
          "internalType": "uint256",
          "name": "value",
          "type": "uint256"
        }
      ],
      "name": "Approval",
      "type": "event"
    },
    {
      "anonymous": false,
      "inputs": [
        {
          "indexed": true,
          "internalType": "address",
          "name": "previousOwner",
          "type": "address"
        },
        {
          "indexed": true,
          "internalType": "address",
          "name": "newOwner",
          "type": "address"
        }
      ],
      "name": "OwnershipTransferred",
      "type": "event"
    },
    {
      "anonymous": false,
      "inputs": [
        {
          "indexed": true,
          "internalType": "address",
          "name": "from",
          "type": "address"
        },
        {
          "indexed": true,
          "internalType": "address",
          "name": "to",
          "type": "address"
        },
        {
          "indexed": false,
          "internalType": "uint256",
          "name": "value",
          "type": "uint256"
        }
      ],
      "name": "Transfer",
      "type": "event"
    },
    {
      "inputs": [
        {
          "internalType": "address",
          "name": "owner",
          "type": "address"
        },
        {
          "internalType": "address",
          "name": "spender",
          "type": "address"
        }
      ],
      "name": "allowance",
      "outputs": [
        {
          "internalType": "uint256",
          "name": "",
          "type": "uint256"
        }
      ],
      "stateMutability": "view",
      "type": "function"
    },
    {
      "inputs": [
        {
          "internalType": "address",
          "name": "spender",
          "type": "address"
        },
        {
          "internalType": "uint256",
          "name": "value",
          "type": "uint256"
        }
      ],
      "name": "approve",
      "outputs": [
        {
          "internalType": "bool",
          "name": "",
          "type": "bool"
        }
      ],
      "stateMutability": "nonpayable",
      "type": "function"
    },
    {
      "inputs": [
        {
          "internalType": "address",
          "name": "account",
          "type": "address"
        }
      ],
      "name": "balanceOf",
      "outputs": [
        {
          "internalType": "uint256",
          "name": "",
          "type": "uint256"
        }
      ],
      "stateMutability": "view",
      "type": "function"
    },
    {
      "inputs": [],
      "name": "decimals",
      "outputs": [
        {
          "internalType": "uint8",
          "name": "",
          "type": "uint8"
        }
      ],
      "stateMutability": "view",
      "type": "function"
    },
    {
      "inputs": [
        {
          "internalType": "address",
          "name": "user",
          "type": "address"
        }
      ],
      "name": "faucetERC20",
      "outputs": [],
      "stateMutability": "nonpayable",
      "type": "function"
    },
    {
      "inputs": [
        {
          "internalType": "address",
          "name": "account",
          "type": "address"
        },
        {
          "internalType": "uint256",
          "name": "amount",
          "type": "uint256"
        }
      ],
      "name": "mint",
      "outputs": [],
      "stateMutability": "nonpayable",
      "type": "function"
    },
    {
      "inputs": [
        {
          "internalType": "uint256",
          "name": "interest",
          "type": "uint256"
        },
        {
          "internalType": "address",
          "name": "user",
          "type": "address"
        }
      ],
      "name": "mintInterest",
      "outputs": [],
      "stateMutability": "nonpayable",
      "type": "function"
    },
    {
      "inputs": [],
      "name": "name",
      "outputs": [
        {
          "internalType": "string",
          "name": "",
          "type": "string"
        }
      ],
      "stateMutability": "view",
      "type": "function"
    },
    {
      "inputs": [],
      "name": "owner",
      "outputs": [
        {
          "internalType": "address",
          "name": "",
          "type": "address"
        }
      ],
      "stateMutability": "view",
      "type": "function"
    },
    {
      "inputs": [],
      "name": "renounceOwnership",
      "outputs": [],
      "stateMutability": "nonpayable",
      "type": "function"
    },
    {
      "inputs": [],
      "name": "symbol",
      "outputs": [
        {
          "internalType": "string",
          "name": "",
          "type": "string"
        }
      ],
      "stateMutability": "view",
      "type": "function"
    },
    {
      "inputs": [],
      "name": "totalSupply",
      "outputs": [
        {
          "internalType": "uint256",
          "name": "",
          "type": "uint256"
        }
      ],
      "stateMutability": "view",
      "type": "function"
    },
    {
      "inputs": [
        {
          "internalType": "address",
          "name": "to",
          "type": "address"
        },
        {
          "internalType": "uint256",
          "name": "value",
          "type": "uint256"
        }
      ],
      "name": "transfer",
      "outputs": [
        {
          "internalType": "bool",
          "name": "",
          "type": "bool"
        }
      ],
      "stateMutability": "nonpayable",
      "type": "function"
    },
    {
      "inputs": [
        {
          "internalType": "address",
          "name": "from",
          "type": "address"
        },
        {
          "internalType": "address",
          "name": "to",
          "type": "address"
        },
        {
          "internalType": "uint256",
          "name": "value",
          "type": "uint256"
        }
      ],
      "name": "transferFrom",
      "outputs": [
        {
          "internalType": "bool",
          "name": "",
          "type": "bool"
        }
      ],
      "stateMutability": "nonpayable",
      "type": "function"
    },
    {
      "inputs": [
        {
          "internalType": "address",
          "name": "newOwner",
          "type": "address"
        }
      ],
      "name": "transferOwnership",
      "outputs": [],
      "stateMutability": "nonpayable",
      "type": "function"
    }
  ],
  "bytecode": "0x60806040523480156200001157600080fd5b50336040518060400160405280600c81526020017f4d79546f6b656e455243323000000000000000000000000000000000000000008152506040518060400160405280600781526020017f4d5445524332300000000000000000000000000000000000000000000000000081525081600390816200009091906200074c565b508060049081620000a291906200074c565b505050600073ffffffffffffffffffffffffffffffffffffffff168173ffffffffffffffffffffffffffffffffffffffff16036200011a5760006040517f1e4fbdf700000000000000000000000000000000000000000000000000000000815260040162000111919062000878565b60405180910390fd5b6200012b816200014f60201b60201c565b5062000149306a084595161401484a0000006200021560201b60201c565b6200096a565b6000600560009054906101000a900473ffffffffffffffffffffffffffffffffffffffff16905081600560006101000a81548173ffffffffffffffffffffffffffffffffffffffff021916908373ffffffffffffffffffffffffffffffffffffffff1602179055508173ffffffffffffffffffffffffffffffffffffffff168173ffffffffffffffffffffffffffffffffffffffff167f8be0079c531659141344cd1fd0a4f28419497f9722a3daafe3b4186f6b6457e060405160405180910390a35050565b600073ffffffffffffffffffffffffffffffffffffffff168273ffffffffffffffffffffffffffffffffffffffff16036200028a5760006040517fec442f0500000000000000000000000000000000000000000000000000000000815260040162000281919062000878565b60405180910390fd5b6200029e60008383620002a260201b60201c565b5050565b600073ffffffffffffffffffffffffffffffffffffffff168373ffffffffffffffffffffffffffffffffffffffff1603620002f8578060026000828254620002eb9190620008c4565b92505081905550620003ce565b60008060008573ffffffffffffffffffffffffffffffffffffffff1673ffffffffffffffffffffffffffffffffffffffff1681526020019081526020016000205490508181101562000387578381836040517fe450d38c0000000000000000000000000000000000000000000000000000000081526004016200037e9392919062000910565b60405180910390fd5b8181036000808673ffffffffffffffffffffffffffffffffffffffff1673ffffffffffffffffffffffffffffffffffffffff16815260200190815260200160002081905550505b600073ffffffffffffffffffffffffffffffffffffffff168273ffffffffffffffffffffffffffffffffffffffff160362000419578060026000828254039250508190555062000466565b806000808473ffffffffffffffffffffffffffffffffffffffff1673ffffffffffffffffffffffffffffffffffffffff168152602001908152602001600020600082825401925050819055505b8173ffffffffffffffffffffffffffffffffffffffff168373ffffffffffffffffffffffffffffffffffffffff167fddf252ad1be2c89b69c2b068fc378daa952ba7f163c4a11628f55a4df523b3ef83604051620004c591906200094d565b60405180910390a3505050565b600081519050919050565b7f4e487b7100000000000000000000000000000000000000000000000000000000600052604160045260246000fd5b7f4e487b7100000000000000000000000000000000000000000000000000000000600052602260045260246000fd5b600060028204905060018216806200055457607f821691505b6020821081036200056a57620005696200050c565b5b50919050565b60008190508160005260206000209050919050565b60006020601f8301049050919050565b600082821b905092915050565b600060088302620005d47fffffffffffffffffffffffffffffffffffffffffffffffffffffffffffffffff8262000595565b620005e0868362000595565b95508019841693508086168417925050509392505050565b6000819050919050565b6000819050919050565b60006200062d620006276200062184620005f8565b62000602565b620005f8565b9050919050565b6000819050919050565b62000649836200060c565b62000661620006588262000634565b848454620005a2565b825550505050565b600090565b6200067862000669565b620006858184846200063e565b505050565b5b81811015620006ad57620006a16000826200066e565b6001810190506200068b565b5050565b601f821115620006fc57620006c68162000570565b620006d18462000585565b81016020851015620006e1578190505b620006f9620006f08562000585565b8301826200068a565b50505b505050565b600082821c905092915050565b6000620007216000198460080262000701565b1980831691505092915050565b60006200073c83836200070e565b9150826002028217905092915050565b6200075782620004d2565b67ffffffffffffffff811115620007735762000772620004dd565b5b6200077f82546200053b565b6200078c828285620006b1565b600060209050601f831160018114620007c45760008415620007af578287015190505b620007bb85826200072e565b8655506200082b565b601f198416620007d48662000570565b60005b82811015620007fe57848901518255600182019150602085019450602081019050620007d7565b868310156200081e57848901516200081a601f8916826200070e565b8355505b6001600288020188555050505b505050505050565b600073ffffffffffffffffffffffffffffffffffffffff82169050919050565b6000620008608262000833565b9050919050565b620008728162000853565b82525050565b60006020820190506200088f600083018462000867565b92915050565b7f4e487b7100000000000000000000000000000000000000000000000000000000600052601160045260246000fd5b6000620008d182620005f8565b9150620008de83620005f8565b9250828201905080821115620008f957620008f862000895565b5b92915050565b6200090a81620005f8565b82525050565b600060608201905062000927600083018662000867565b620009366020830185620008ff565b620009456040830184620008ff565b949350505050565b6000602082019050620009646000830184620008ff565b92915050565b61141b806200097a6000396000f3fe608060405234801561001057600080fd5b50600436106100f55760003560e01c806370a0823111610097578063a9059cbb11610066578063a9059cbb14610262578063d5b7211b14610292578063dd62ed3e146102ae578063f2fde38b146102de576100f5565b806370a08231146101ec578063715018a61461021c5780638da5cb5b1461022657806395d89b4114610244576100f5565b806323b872dd116100d357806323b872dd1461016657806324cea5b914610196578063313ce567146101b257806340c10f19146101d0576100f5565b806306fdde03146100fa578063095ea7b31461011857806318160ddd14610148575b600080fd5b6101026102fa565b60405161010f9190610f31565b60405180910390f35b610132600480360381019061012d9190610fec565b61038c565b60405161013f9190611047565b60405180910390f35b6101506103af565b60405161015d9190611071565b60405180910390f35b610180600480360381019061017b919061108c565b6103b9565b60405161018d9190611047565b60405180910390f35b6101b060048036038101906101ab91906110df565b6103e8565b005b6101ba6103f7565b6040516101c7919061113b565b60405180910390f35b6101ea60048036038101906101e59190610fec565b610400565b005b61020660048036038101906102019190611156565b610483565b6040516102139190611071565b60405180910390f35b6102246104cb565b005b61022e6104df565b60405161023b9190611192565b60405180910390f35b61024c610509565b6040516102599190610f31565b60405180910390f35b61027c60048036038101906102779190610fec565b61059b565b6040516102899190611047565b60405180910390f35b6102ac60048036038101906102a79190611156565b6105be565b005b6102c860048036038101906102c391906111ad565b610627565b6040516102d59190611071565b60405180910390f35b6102f860048036038101906102f39190611156565b6106ae565b005b6060600380546103099061121c565b80601f01602080910402602001604051908101604052809291908181526020018280546103359061121c565b80156103825780601f1061035757610100808354040283529160200191610382565b820191906000526020600020905b81548152906001019060200180831161036557829003601f168201915b5050505050905090565b600080610397610734565b90506103a481858561073c565b600191505092915050565b6000600254905090565b6000806103c4610734565b90506103d185828561074e565b6103dc8585856107e2565b60019150509392505050565b6103f33082846107e2565b5050565b60006012905090565b3373ffffffffffffffffffffffffffffffffffffffff1661041f6104df565b73ffffffffffffffffffffffffffffffffffffffff1614610475576040517f08c379a000000000000000000000000000000000000000000000000000000000815260040161046c90611299565b60405180910390fd5b61047f82826108d6565b5050565b60008060008373ffffffffffffffffffffffffffffffffffffffff1673ffffffffffffffffffffffffffffffffffffffff168152602001908152602001600020549050919050565b6104d3610958565b6104dd60006109df565b565b6000600560009054906101000a900473ffffffffffffffffffffffffffffffffffffffff16905090565b6060600480546105189061121c565b80601f01602080910402602001604051908101604052809291908181526020018280546105449061121c565b80156105915780601f1061056657610100808354040283529160200191610591565b820191906000526020600020905b81548152906001019060200180831161057457829003601f168201915b5050505050905090565b6000806105a6610734565b90506105b38185856107e2565b600191505092915050565b600069d3c21bcecceda10000009050806105d730610483565b1015610618576040517f08c379a000000000000000000000000000000000000000000000000000000000815260040161060f9061132b565b60405180910390fd5b6106233083836107e2565b5050565b6000600160008473ffffffffffffffffffffffffffffffffffffffff1673ffffffffffffffffffffffffffffffffffffffff16815260200190815260200160002060008373ffffffffffffffffffffffffffffffffffffffff1673ffffffffffffffffffffffffffffffffffffffff16815260200190815260200160002054905092915050565b6106b6610958565b600073ffffffffffffffffffffffffffffffffffffffff168173ffffffffffffffffffffffffffffffffffffffff16036107285760006040517f1e4fbdf700000000000000000000000000000000000000000000000000000000815260040161071f9190611192565b60405180910390fd5b610731816109df565b50565b600033905090565b6107498383836001610aa5565b505050565b600061075a8484610627565b90507fffffffffffffffffffffffffffffffffffffffffffffffffffffffffffffffff81146107dc57818110156107cc578281836040517ffb8f41b20000000000000000000000000000000000000000000000000000000081526004016107c39392919061134b565b60405180910390fd5b6107db84848484036000610aa5565b5b50505050565b600073ffffffffffffffffffffffffffffffffffffffff168373ffffffffffffffffffffffffffffffffffffffff16036108545760006040517f96c6fd1e00000000000000000000000000000000000000000000000000000000815260040161084b9190611192565b60405180910390fd5b600073ffffffffffffffffffffffffffffffffffffffff168273ffffffffffffffffffffffffffffffffffffffff16036108c65760006040517fec442f050000000000000000000000000000000000000000000000000000000081526004016108bd9190611192565b60405180910390fd5b6108d1838383610c7c565b505050565b600073ffffffffffffffffffffffffffffffffffffffff168273ffffffffffffffffffffffffffffffffffffffff16036109485760006040517fec442f0500000000000000000000000000000000000000000000000000000000815260040161093f9190611192565b60405180910390fd5b61095460008383610c7c565b5050565b610960610734565b73ffffffffffffffffffffffffffffffffffffffff1661097e6104df565b73ffffffffffffffffffffffffffffffffffffffff16146109dd576109a1610734565b6040517f118cdaa70000000000000000000000000000000000000000000000000000000081526004016109d49190611192565b60405180910390fd5b565b6000600560009054906101000a900473ffffffffffffffffffffffffffffffffffffffff16905081600560006101000a81548173ffffffffffffffffffffffffffffffffffffffff021916908373ffffffffffffffffffffffffffffffffffffffff1602179055508173ffffffffffffffffffffffffffffffffffffffff168173ffffffffffffffffffffffffffffffffffffffff167f8be0079c531659141344cd1fd0a4f28419497f9722a3daafe3b4186f6b6457e060405160405180910390a35050565b600073ffffffffffffffffffffffffffffffffffffffff168473ffffffffffffffffffffffffffffffffffffffff1603610b175760006040517fe602df05000000000000000000000000000000000000000000000000000000008152600401610b0e9190611192565b60405180910390fd5b600073ffffffffffffffffffffffffffffffffffffffff168373ffffffffffffffffffffffffffffffffffffffff1603610b895760006040517f94280d62000000000000000000000000000000000000000000000000000000008152600401610b809190611192565b60405180910390fd5b81600160008673ffffffffffffffffffffffffffffffffffffffff1673ffffffffffffffffffffffffffffffffffffffff16815260200190815260200160002060008573ffffffffffffffffffffffffffffffffffffffff1673ffffffffffffffffffffffffffffffffffffffff168152602001908152602001600020819055508015610c76578273ffffffffffffffffffffffffffffffffffffffff168473ffffffffffffffffffffffffffffffffffffffff167f8c5be1e5ebec7d5bd14f71427d1e84f3dd0314c0f7b2291e5b200ac8c7c3b92584604051610c6d9190611071565b60405180910390a35b50505050565b600073ffffffffffffffffffffffffffffffffffffffff168373ffffffffffffffffffffffffffffffffffffffff1603610cce578060026000828254610cc291906113b1565b92505081905550610da1565b60008060008573ffffffffffffffffffffffffffffffffffffffff1673ffffffffffffffffffffffffffffffffffffffff16815260200190815260200160002054905081811015610d5a578381836040517fe450d38c000000000000000000000000000000000000000000000000000000008152600401610d519392919061134b565b60405180910390fd5b8181036000808673ffffffffffffffffffffffffffffffffffffffff1673ffffffffffffffffffffffffffffffffffffffff16815260200190815260200160002081905550505b600073ffffffffffffffffffffffffffffffffffffffff168273ffffffffffffffffffffffffffffffffffffffff1603610dea5780600260008282540392505081905550610e37565b806000808473ffffffffffffffffffffffffffffffffffffffff1673ffffffffffffffffffffffffffffffffffffffff168152602001908152602001600020600082825401925050819055505b8173ffffffffffffffffffffffffffffffffffffffff168373ffffffffffffffffffffffffffffffffffffffff167fddf252ad1be2c89b69c2b068fc378daa952ba7f163c4a11628f55a4df523b3ef83604051610e949190611071565b60405180910390a3505050565b600081519050919050565b600082825260208201905092915050565b60005b83811015610edb578082015181840152602081019050610ec0565b60008484015250505050565b6000601f19601f8301169050919050565b6000610f0382610ea1565b610f0d8185610eac565b9350610f1d818560208601610ebd565b610f2681610ee7565b840191505092915050565b60006020820190508181036000830152610f4b8184610ef8565b905092915050565b600080fd5b600073ffffffffffffffffffffffffffffffffffffffff82169050919050565b6000610f8382610f58565b9050919050565b610f9381610f78565b8114610f9e57600080fd5b50565b600081359050610fb081610f8a565b92915050565b6000819050919050565b610fc981610fb6565b8114610fd457600080fd5b50565b600081359050610fe681610fc0565b92915050565b6000806040838503121561100357611002610f53565b5b600061101185828601610fa1565b925050602061102285828601610fd7565b9150509250929050565b60008115159050919050565b6110418161102c565b82525050565b600060208201905061105c6000830184611038565b92915050565b61106b81610fb6565b82525050565b60006020820190506110866000830184611062565b92915050565b6000806000606084860312156110a5576110a4610f53565b5b60006110b386828701610fa1565b93505060206110c486828701610fa1565b92505060406110d586828701610fd7565b9150509250925092565b600080604083850312156110f6576110f5610f53565b5b600061110485828601610fd7565b925050602061111585828601610fa1565b9150509250929050565b600060ff82169050919050565b6111358161111f565b82525050565b6000602082019050611150600083018461112c565b92915050565b60006020828403121561116c5761116b610f53565b5b600061117a84828501610fa1565b91505092915050565b61118c81610f78565b82525050565b60006020820190506111a76000830184611183565b92915050565b600080604083850312156111c4576111c3610f53565b5b60006111d285828601610fa1565b92505060206111e385828601610fa1565b9150509250929050565b7f4e487b7100000000000000000000000000000000000000000000000000000000600052602260045260246000fd5b6000600282049050600182168061123457607f821691505b602082108103611247576112466111ed565b5b50919050565b7f4f6e6c792061646d696e20697320616c6c6f7765640000000000000000000000600082015250565b6000611283601583610eac565b915061128e8261124d565b602082019050919050565b600060208201905081810360008301526112b281611276565b9050919050565b7f436f6e747261637420646f6573206e6f74206861766520656e6f75676820746f60008201527f6b656e7320666f72206661756365740000000000000000000000000000000000602082015250565b6000611315602f83610eac565b9150611320826112b9565b604082019050919050565b6000602082019050818103600083015261134481611308565b9050919050565b60006060820190506113606000830186611183565b61136d6020830185611062565b61137a6040830184611062565b949350505050565b7f4e487b7100000000000000000000000000000000000000000000000000000000600052601160045260246000fd5b60006113bc82610fb6565b91506113c783610fb6565b92508282019050808211156113df576113de611382565b5b9291505056fea2646970667358221220e10624bf8f90ee257f6b9a0c063483877ac026b10735ebb790fd06b5ae0ec7f864736f6c63430008140033",
  "linkReferences": {},
  "deployedLinkReferences": {}
}