{
  "_format": "hh-sol-artifact-1",
  "contractName": "MyTokenERC721",
  "sourceName": "contracts/MyERC721.sol",
  "abi": [
    {
      "inputs": [],
      "stateMutability": "nonpayable",
      "type": "constructor"
    },
    {
      "inputs": [
        {
          "internalType": "address",
          "name": "sender",
          "type": "address"
        },
        {
          "internalType": "uint256",
          "name": "tokenId",
          "type": "uint256"
        },
        {
          "internalType": "address",
          "name": "owner",
          "type": "address"
        }
      ],
      "name": "ERC721IncorrectOwner",
      "type": "error"
    },
    {
      "inputs": [
        {
          "internalType": "address",
          "name": "operator",
          "type": "address"
        },
        {
          "internalType": "uint256",
          "name": "tokenId",
          "type": "uint256"
        }
      ],
      "name": "ERC721InsufficientApproval",
      "type": "error"
    },
    {
      "inputs": [
        {
          "internalType": "address",
          "name": "approver",
          "type": "address"
        }
      ],
      "name": "ERC721InvalidApprover",
      "type": "error"
    },
    {
      "inputs": [
        {
          "internalType": "address",
          "name": "operator",
          "type": "address"
        }
      ],
      "name": "ERC721InvalidOperator",
      "type": "error"
    },
    {
      "inputs": [
        {
          "internalType": "address",
          "name": "owner",
          "type": "address"
        }
      ],
      "name": "ERC721InvalidOwner",
      "type": "error"
    },
    {
      "inputs": [
        {
          "internalType": "address",
          "name": "receiver",
          "type": "address"
        }
      ],
      "name": "ERC721InvalidReceiver",
      "type": "error"
    },
    {
      "inputs": [
        {
          "internalType": "address",
          "name": "sender",
          "type": "address"
        }
      ],
      "name": "ERC721InvalidSender",
      "type": "error"
    },
    {
      "inputs": [
        {
          "internalType": "uint256",
          "name": "tokenId",
          "type": "uint256"
        }
      ],
      "name": "ERC721NonexistentToken",
      "type": "error"
    },
    {
      "anonymous": false,
      "inputs": [
        {
          "indexed": true,
          "internalType": "address",
          "name": "owner",
          "type": "address"
        },
        {
          "indexed": true,
          "internalType": "address",
          "name": "approved",
          "type": "address"
        },
        {
          "indexed": true,
          "internalType": "uint256",
          "name": "tokenId",
          "type": "uint256"
        }
      ],
      "name": "Approval",
      "type": "event"
    },
    {
      "anonymous": false,
      "inputs": [
        {
          "indexed": true,
          "internalType": "address",
          "name": "owner",
          "type": "address"
        },
        {
          "indexed": true,
          "internalType": "address",
          "name": "operator",
          "type": "address"
        },
        {
          "indexed": false,
          "internalType": "bool",
          "name": "approved",
          "type": "bool"
        }
      ],
      "name": "ApprovalForAll",
      "type": "event"
    },
    {
      "anonymous": false,
      "inputs": [
        {
          "indexed": true,
          "internalType": "address",
          "name": "from",
          "type": "address"
        },
        {
          "indexed": true,
          "internalType": "address",
          "name": "to",
          "type": "address"
        },
        {
          "indexed": true,
          "internalType": "uint256",
          "name": "tokenId",
          "type": "uint256"
        }
      ],
      "name": "Transfer",
      "type": "event"
    },
    {
      "inputs": [],
      "name": "_tokenIds",
      "outputs": [
        {
          "internalType": "uint256",
          "name": "",
          "type": "uint256"
        }
      ],
      "stateMutability": "view",
      "type": "function"
    },
    {
      "inputs": [
        {
          "internalType": "address",
          "name": "to",
          "type": "address"
        },
        {
          "internalType": "uint256",
          "name": "tokenId",
          "type": "uint256"
        }
      ],
      "name": "approve",
      "outputs": [],
      "stateMutability": "nonpayable",
      "type": "function"
    },
    {
      "inputs": [
        {
          "internalType": "address",
          "name": "owner",
          "type": "address"
        }
      ],
      "name": "balanceOf",
      "outputs": [
        {
          "internalType": "uint256",
          "name": "",
          "type": "uint256"
        }
      ],
      "stateMutability": "view",
      "type": "function"
    },
    {
      "inputs": [
        {
          "internalType": "uint256",
          "name": "tokenId",
          "type": "uint256"
        }
      ],
      "name": "getApproved",
      "outputs": [
        {
          "internalType": "address",
          "name": "",
          "type": "address"
        }
      ],
      "stateMutability": "view",
      "type": "function"
    },
    {
      "inputs": [
        {
          "internalType": "address",
          "name": "owner",
          "type": "address"
        }
      ],
      "name": "getOwnedTokenIds",
      "outputs": [
        {
          "internalType": "uint256[]",
          "name": "",
          "type": "uint256[]"
        }
      ],
      "stateMutability": "view",
      "type": "function"
    },
    {
      "inputs": [
        {
          "internalType": "address",
          "name": "owner",
          "type": "address"
        },
        {
          "internalType": "address",
          "name": "operator",
          "type": "address"
        }
      ],
      "name": "isApprovedForAll",
      "outputs": [
        {
          "internalType": "bool",
          "name": "",
          "type": "bool"
        }
      ],
      "stateMutability": "view",
      "type": "function"
    },
    {
      "inputs": [
        {
          "internalType": "address",
          "name": "to",
          "type": "address"
        }
      ],
      "name": "mint",
      "outputs": [
        {
          "internalType": "uint256",
          "name": "",
          "type": "uint256"
        }
      ],
      "stateMutability": "nonpayable",
      "type": "function"
    },
    {
      "inputs": [],
      "name": "name",
      "outputs": [
        {
          "internalType": "string",
          "name": "",
          "type": "string"
        }
      ],
      "stateMutability": "view",
      "type": "function"
    },
    {
      "inputs": [
        {
          "internalType": "uint256",
          "name": "tokenId",
          "type": "uint256"
        }
      ],
      "name": "ownerOf",
      "outputs": [
        {
          "internalType": "address",
          "name": "",
          "type": "address"
        }
      ],
      "stateMutability": "view",
      "type": "function"
    },
    {
      "inputs": [
        {
          "internalType": "address",
          "name": "from",
          "type": "address"
        },
        {
          "internalType": "address",
          "name": "to",
          "type": "address"
        },
        {
          "internalType": "uint256",
          "name": "tokenId",
          "type": "uint256"
        }
      ],
      "name": "safeTransferFrom",
      "outputs": [],
      "stateMutability": "nonpayable",
      "type": "function"
    },
    {
      "inputs": [
        {
          "internalType": "address",
          "name": "from",
          "type": "address"
        },
        {
          "internalType": "address",
          "name": "to",
          "type": "address"
        },
        {
          "internalType": "uint256",
          "name": "tokenId",
          "type": "uint256"
        },
        {
          "internalType": "bytes",
          "name": "data",
          "type": "bytes"
        }
      ],
      "name": "safeTransferFrom",
      "outputs": [],
      "stateMutability": "nonpayable",
      "type": "function"
    },
    {
      "inputs": [
        {
          "internalType": "address",
          "name": "operator",
          "type": "address"
        },
        {
          "internalType": "bool",
          "name": "approved",
          "type": "bool"
        }
      ],
      "name": "setApprovalForAll",
      "outputs": [],
      "stateMutability": "nonpayable",
      "type": "function"
    },
    {
      "inputs": [
        {
          "internalType": "bytes4",
          "name": "interfaceId",
          "type": "bytes4"
        }
      ],
      "name": "supportsInterface",
      "outputs": [
        {
          "internalType": "bool",
          "name": "",
          "type": "bool"
        }
      ],
      "stateMutability": "view",
      "type": "function"
    },
    {
      "inputs": [],
      "name": "symbol",
      "outputs": [
        {
          "internalType": "string",
          "name": "",
          "type": "string"
        }
      ],
      "stateMutability": "view",
      "type": "function"
    },
    {
      "inputs": [
        {
          "internalType": "uint256",
          "name": "tokenId",
          "type": "uint256"
        }
      ],
      "name": "tokenURI",
      "outputs": [
        {
          "internalType": "string",
          "name": "",
          "type": "string"
        }
      ],
      "stateMutability": "view",
      "type": "function"
    },
    {
      "inputs": [
        {
          "internalType": "address",
          "name": "from",
          "type": "address"
        },
        {
          "internalType": "address",
          "name": "to",
          "type": "address"
        },
        {
          "internalType": "uint256",
          "name": "tokenId",
          "type": "uint256"
        }
      ],
      "name": "transferFrom",
      "outputs": [],
      "stateMutability": "nonpayable",
      "type": "function"
    }
  ],
  "bytecode": "0x60806040523480156200001157600080fd5b506040518060400160405280600d81526020017f4d79546f6b656e455243373231000000000000000000000000000000000000008152506040518060400160405280600681526020017f4d5445373231000000000000000000000000000000000000000000000000000081525081600090816200008f919062000324565b508060019081620000a1919062000324565b5050506200040b565b600081519050919050565b7f4e487b7100000000000000000000000000000000000000000000000000000000600052604160045260246000fd5b7f4e487b7100000000000000000000000000000000000000000000000000000000600052602260045260246000fd5b600060028204905060018216806200012c57607f821691505b602082108103620001425762000141620000e4565b5b50919050565b60008190508160005260206000209050919050565b60006020601f8301049050919050565b600082821b905092915050565b600060088302620001ac7fffffffffffffffffffffffffffffffffffffffffffffffffffffffffffffffff826200016d565b620001b886836200016d565b95508019841693508086168417925050509392505050565b6000819050919050565b6000819050919050565b600062000205620001ff620001f984620001d0565b620001da565b620001d0565b9050919050565b6000819050919050565b6200022183620001e4565b6200023962000230826200020c565b8484546200017a565b825550505050565b600090565b6200025062000241565b6200025d81848462000216565b505050565b5b8181101562000285576200027960008262000246565b60018101905062000263565b5050565b601f821115620002d4576200029e8162000148565b620002a9846200015d565b81016020851015620002b9578190505b620002d1620002c8856200015d565b83018262000262565b50505b505050565b600082821c905092915050565b6000620002f960001984600802620002d9565b1980831691505092915050565b6000620003148383620002e6565b9150826002028217905092915050565b6200032f82620000aa565b67ffffffffffffffff8111156200034b576200034a620000b5565b5b62000357825462000113565b6200036482828562000289565b600060209050601f8311600181146200039c576000841562000387578287015190505b62000393858262000306565b86555062000403565b601f198416620003ac8662000148565b60005b82811015620003d657848901518255600182019150602085019450602081019050620003af565b86831015620003f65784890151620003f2601f891682620002e6565b8355505b6001600288020188555050505b505050505050565b6120ea806200041b6000396000f3fe608060405234801561001057600080fd5b50600436106101005760003560e01c80636a62784211610097578063aa46a40011610066578063aa46a400146102d1578063b88d4fde146102ef578063c87b56dd1461030b578063e985e9c51461033b57610100565b80636a6278421461023757806370a082311461026757806395d89b4114610297578063a22cb465146102b557610100565b806323b872dd116100d357806323b872dd1461019f57806342842e0e146101bb5780634fac7e41146101d75780636352211e1461020757610100565b806301ffc9a71461010557806306fdde0314610135578063081812fc14610153578063095ea7b314610183575b600080fd5b61011f600480360381019061011a91906117dd565b61036b565b60405161012c9190611825565b60405180910390f35b61013d61044d565b60405161014a91906118d0565b60405180910390f35b61016d60048036038101906101689190611928565b6104df565b60405161017a9190611996565b60405180910390f35b61019d600480360381019061019891906119dd565b6104fb565b005b6101b960048036038101906101b49190611a1d565b610511565b005b6101d560048036038101906101d09190611a1d565b610613565b005b6101f160048036038101906101ec9190611a70565b610633565b6040516101fe9190611b5b565b60405180910390f35b610221600480360381019061021c9190611928565b6106ca565b60405161022e9190611996565b60405180910390f35b610251600480360381019061024c9190611a70565b6106dc565b60405161025e9190611b8c565b60405180910390f35b610281600480360381019061027c9190611a70565b610774565b60405161028e9190611b8c565b60405180910390f35b61029f61082e565b6040516102ac91906118d0565b60405180910390f35b6102cf60048036038101906102ca9190611bd3565b6108c0565b005b6102d96108d6565b6040516102e69190611b8c565b60405180910390f35b61030960048036038101906103049190611d48565b6108dc565b005b61032560048036038101906103209190611928565b6108f9565b60405161033291906118d0565b60405180910390f35b61035560048036038101906103509190611dcb565b610962565b6040516103629190611825565b60405180910390f35b60007f80ac58cd000000000000000000000000000000000000000000000000000000007bffffffffffffffffffffffffffffffffffffffffffffffffffffffff1916827bffffffffffffffffffffffffffffffffffffffffffffffffffffffff1916148061043657507f5b5e139f000000000000000000000000000000000000000000000000000000007bffffffffffffffffffffffffffffffffffffffffffffffffffffffff1916827bffffffffffffffffffffffffffffffffffffffffffffffffffffffff1916145b806104465750610445826109f6565b5b9050919050565b60606000805461045c90611e3a565b80601f016020809104026020016040519081016040528092919081815260200182805461048890611e3a565b80156104d55780601f106104aa576101008083540402835291602001916104d5565b820191906000526020600020905b8154815290600101906020018083116104b857829003601f168201915b5050505050905090565b60006104ea82610a60565b506104f482610ae8565b9050919050565b61050d8282610508610b25565b610b2d565b5050565b600073ffffffffffffffffffffffffffffffffffffffff168273ffffffffffffffffffffffffffffffffffffffff16036105835760006040517f64a0ae9200000000000000000000000000000000000000000000000000000000815260040161057a9190611996565b60405180910390fd5b60006105978383610592610b25565b610b3f565b90508373ffffffffffffffffffffffffffffffffffffffff168173ffffffffffffffffffffffffffffffffffffffff161461060d578382826040517f64283d7b00000000000000000000000000000000000000000000000000000000815260040161060493929190611e6b565b60405180910390fd5b50505050565b61062e838383604051806020016040528060008152506108dc565b505050565b6060600760008373ffffffffffffffffffffffffffffffffffffffff1673ffffffffffffffffffffffffffffffffffffffff1681526020019081526020016000208054806020026020016040519081016040528092919081815260200182805480156106be57602002820191906000526020600020905b8154815260200190600101908083116106aa575b50505050509050919050565b60006106d582610a60565b9050919050565b6000600660008154809291906106f190611ed1565b919050555061070282600654610d59565b600760008373ffffffffffffffffffffffffffffffffffffffff1673ffffffffffffffffffffffffffffffffffffffff16815260200190815260200160002060065490806001815401808255809150506001900390600052602060002001600090919091909150556006549050919050565b60008073ffffffffffffffffffffffffffffffffffffffff168273ffffffffffffffffffffffffffffffffffffffff16036107e75760006040517f89c62b640000000000000000000000000000000000000000000000000000000081526004016107de9190611996565b60405180910390fd5b600360008373ffffffffffffffffffffffffffffffffffffffff1673ffffffffffffffffffffffffffffffffffffffff168152602001908152602001600020549050919050565b60606001805461083d90611e3a565b80601f016020809104026020016040519081016040528092919081815260200182805461086990611e3a565b80156108b65780601f1061088b576101008083540402835291602001916108b6565b820191906000526020600020905b81548152906001019060200180831161089957829003601f168201915b5050505050905090565b6108d26108cb610b25565b8383610d77565b5050565b60065481565b6108e7848484610511565b6108f384848484610ee6565b50505050565b606061090482610a60565b50600061090f61109d565b9050600081511161092f576040518060200160405280600081525061095a565b80610939846110b4565b60405160200161094a929190611f55565b6040516020818303038152906040525b915050919050565b6000600560008473ffffffffffffffffffffffffffffffffffffffff1673ffffffffffffffffffffffffffffffffffffffff16815260200190815260200160002060008373ffffffffffffffffffffffffffffffffffffffff1673ffffffffffffffffffffffffffffffffffffffff16815260200190815260200160002060009054906101000a900460ff16905092915050565b60007f01ffc9a7000000000000000000000000000000000000000000000000000000007bffffffffffffffffffffffffffffffffffffffffffffffffffffffff1916827bffffffffffffffffffffffffffffffffffffffffffffffffffffffff1916149050919050565b600080610a6c83611182565b9050600073ffffffffffffffffffffffffffffffffffffffff168173ffffffffffffffffffffffffffffffffffffffff1603610adf57826040517f7e273289000000000000000000000000000000000000000000000000000000008152600401610ad69190611b8c565b60405180910390fd5b80915050919050565b60006004600083815260200190815260200160002060009054906101000a900473ffffffffffffffffffffffffffffffffffffffff169050919050565b600033905090565b610b3a83838360016111bf565b505050565b600080610b4b84611182565b9050600073ffffffffffffffffffffffffffffffffffffffff168373ffffffffffffffffffffffffffffffffffffffff1614610b8d57610b8c818486611384565b5b600073ffffffffffffffffffffffffffffffffffffffff168173ffffffffffffffffffffffffffffffffffffffff1614610c1e57610bcf6000856000806111bf565b6001600360008373ffffffffffffffffffffffffffffffffffffffff1673ffffffffffffffffffffffffffffffffffffffff168152602001908152602001600020600082825403925050819055505b600073ffffffffffffffffffffffffffffffffffffffff168573ffffffffffffffffffffffffffffffffffffffff1614610ca1576001600360008773ffffffffffffffffffffffffffffffffffffffff1673ffffffffffffffffffffffffffffffffffffffff168152602001908152602001600020600082825401925050819055505b846002600086815260200190815260200160002060006101000a81548173ffffffffffffffffffffffffffffffffffffffff021916908373ffffffffffffffffffffffffffffffffffffffff160217905550838573ffffffffffffffffffffffffffffffffffffffff168273ffffffffffffffffffffffffffffffffffffffff167fddf252ad1be2c89b69c2b068fc378daa952ba7f163c4a11628f55a4df523b3ef60405160405180910390a4809150509392505050565b610d73828260405180602001604052806000815250611448565b5050565b600073ffffffffffffffffffffffffffffffffffffffff168273ffffffffffffffffffffffffffffffffffffffff1603610de857816040517f5b08ba18000000000000000000000000000000000000000000000000000000008152600401610ddf9190611996565b60405180910390fd5b80600560008573ffffffffffffffffffffffffffffffffffffffff1673ffffffffffffffffffffffffffffffffffffffff16815260200190815260200160002060008473ffffffffffffffffffffffffffffffffffffffff1673ffffffffffffffffffffffffffffffffffffffff16815260200190815260200160002060006101000a81548160ff0219169083151502179055508173ffffffffffffffffffffffffffffffffffffffff168373ffffffffffffffffffffffffffffffffffffffff167f17307eab39ab6107e8899845ad3d59bd9653f200f220920489ca2b5937696c3183604051610ed99190611825565b60405180910390a3505050565b60008373ffffffffffffffffffffffffffffffffffffffff163b1115611097578273ffffffffffffffffffffffffffffffffffffffff1663150b7a02610f2a610b25565b8685856040518563ffffffff1660e01b8152600401610f4c9493929190611fce565b6020604051808303816000875af1925050508015610f8857506040513d601f19601f82011682018060405250810190610f85919061202f565b60015b61100c573d8060008114610fb8576040519150601f19603f3d011682016040523d82523d6000602084013e610fbd565b606091505b50600081510361100457836040517f64a0ae92000000000000000000000000000000000000000000000000000000008152600401610ffb9190611996565b60405180910390fd5b805181602001fd5b63150b7a0260e01b7bffffffffffffffffffffffffffffffffffffffffffffffffffffffff1916817bffffffffffffffffffffffffffffffffffffffffffffffffffffffff19161461109557836040517f64a0ae9200000000000000000000000000000000000000000000000000000000815260040161108c9190611996565b60405180910390fd5b505b50505050565b606060405180602001604052806000815250905090565b6060600060016110c384611464565b01905060008167ffffffffffffffff8111156110e2576110e1611c1d565b5b6040519080825280601f01601f1916602001820160405280156111145781602001600182028036833780820191505090505b509050600082602001820190505b600115611177578080600190039150507f3031323334353637383961626364656600000000000000000000000000000000600a86061a8153600a858161116b5761116a61205c565b5b04945060008503611122575b819350505050919050565b60006002600083815260200190815260200160002060009054906101000a900473ffffffffffffffffffffffffffffffffffffffff169050919050565b80806111f85750600073ffffffffffffffffffffffffffffffffffffffff168273ffffffffffffffffffffffffffffffffffffffff1614155b1561132c57600061120884610a60565b9050600073ffffffffffffffffffffffffffffffffffffffff168373ffffffffffffffffffffffffffffffffffffffff161415801561127357508273ffffffffffffffffffffffffffffffffffffffff168173ffffffffffffffffffffffffffffffffffffffff1614155b801561128657506112848184610962565b155b156112c857826040517fa9fbf51f0000000000000000000000000000000000000000000000000000000081526004016112bf9190611996565b60405180910390fd5b811561132a57838573ffffffffffffffffffffffffffffffffffffffff168273ffffffffffffffffffffffffffffffffffffffff167f8c5be1e5ebec7d5bd14f71427d1e84f3dd0314c0f7b2291e5b200ac8c7c3b92560405160405180910390a45b505b836004600085815260200190815260200160002060006101000a81548173ffffffffffffffffffffffffffffffffffffffff021916908373ffffffffffffffffffffffffffffffffffffffff16021790555050505050565b61138f8383836115b7565b61144357600073ffffffffffffffffffffffffffffffffffffffff168373ffffffffffffffffffffffffffffffffffffffff160361140457806040517f7e2732890000000000000000000000000000000000000000000000000000000081526004016113fb9190611b8c565b60405180910390fd5b81816040517f177e802f00000000000000000000000000000000000000000000000000000000815260040161143a92919061208b565b60405180910390fd5b505050565b6114528383611678565b61145f6000848484610ee6565b505050565b600080600090507a184f03e93ff9f4daa797ed6e38ed64bf6a1f01000000000000000083106114c2577a184f03e93ff9f4daa797ed6e38ed64bf6a1f01000000000000000083816114b8576114b761205c565b5b0492506040810190505b6d04ee2d6d415b85acef810000000083106114ff576d04ee2d6d415b85acef810000000083816114f5576114f461205c565b5b0492506020810190505b662386f26fc10000831061152e57662386f26fc1000083816115245761152361205c565b5b0492506010810190505b6305f5e1008310611557576305f5e100838161154d5761154c61205c565b5b0492506008810190505b612710831061157c5761271083816115725761157161205c565b5b0492506004810190505b6064831061159f57606483816115955761159461205c565b5b0492506002810190505b600a83106115ae576001810190505b80915050919050565b60008073ffffffffffffffffffffffffffffffffffffffff168373ffffffffffffffffffffffffffffffffffffffff161415801561166f57508273ffffffffffffffffffffffffffffffffffffffff168473ffffffffffffffffffffffffffffffffffffffff161480611630575061162f8484610962565b5b8061166e57508273ffffffffffffffffffffffffffffffffffffffff1661165683610ae8565b73ffffffffffffffffffffffffffffffffffffffff16145b5b90509392505050565b600073ffffffffffffffffffffffffffffffffffffffff168273ffffffffffffffffffffffffffffffffffffffff16036116ea5760006040517f64a0ae920000000000000000000000000000000000000000000000000000000081526004016116e19190611996565b60405180910390fd5b60006116f883836000610b3f565b9050600073ffffffffffffffffffffffffffffffffffffffff168173ffffffffffffffffffffffffffffffffffffffff161461176c5760006040517f73c6ac6e0000000000000000000000000000000000000000000000000000000081526004016117639190611996565b60405180910390fd5b505050565b6000604051905090565b600080fd5b600080fd5b60007fffffffff0000000000000000000000000000000000000000000000000000000082169050919050565b6117ba81611785565b81146117c557600080fd5b50565b6000813590506117d7816117b1565b92915050565b6000602082840312156117f3576117f261177b565b5b6000611801848285016117c8565b91505092915050565b60008115159050919050565b61181f8161180a565b82525050565b600060208201905061183a6000830184611816565b92915050565b600081519050919050565b600082825260208201905092915050565b60005b8381101561187a57808201518184015260208101905061185f565b60008484015250505050565b6000601f19601f8301169050919050565b60006118a282611840565b6118ac818561184b565b93506118bc81856020860161185c565b6118c581611886565b840191505092915050565b600060208201905081810360008301526118ea8184611897565b905092915050565b6000819050919050565b611905816118f2565b811461191057600080fd5b50565b600081359050611922816118fc565b92915050565b60006020828403121561193e5761193d61177b565b5b600061194c84828501611913565b91505092915050565b600073ffffffffffffffffffffffffffffffffffffffff82169050919050565b600061198082611955565b9050919050565b61199081611975565b82525050565b60006020820190506119ab6000830184611987565b92915050565b6119ba81611975565b81146119c557600080fd5b50565b6000813590506119d7816119b1565b92915050565b600080604083850312156119f4576119f361177b565b5b6000611a02858286016119c8565b9250506020611a1385828601611913565b9150509250929050565b600080600060608486031215611a3657611a3561177b565b5b6000611a44868287016119c8565b9350506020611a55868287016119c8565b9250506040611a6686828701611913565b9150509250925092565b600060208284031215611a8657611a8561177b565b5b6000611a94848285016119c8565b91505092915050565b600081519050919050565b600082825260208201905092915050565b6000819050602082019050919050565b611ad2816118f2565b82525050565b6000611ae48383611ac9565b60208301905092915050565b6000602082019050919050565b6000611b0882611a9d565b611b128185611aa8565b9350611b1d83611ab9565b8060005b83811015611b4e578151611b358882611ad8565b9750611b4083611af0565b925050600181019050611b21565b5085935050505092915050565b60006020820190508181036000830152611b758184611afd565b905092915050565b611b86816118f2565b82525050565b6000602082019050611ba16000830184611b7d565b92915050565b611bb08161180a565b8114611bbb57600080fd5b50565b600081359050611bcd81611ba7565b92915050565b60008060408385031215611bea57611be961177b565b5b6000611bf8858286016119c8565b9250506020611c0985828601611bbe565b9150509250929050565b600080fd5b600080fd5b7f4e487b7100000000000000000000000000000000000000000000000000000000600052604160045260246000fd5b611c5582611886565b810181811067ffffffffffffffff82111715611c7457611c73611c1d565b5b80604052505050565b6000611c87611771565b9050611c938282611c4c565b919050565b600067ffffffffffffffff821115611cb357611cb2611c1d565b5b611cbc82611886565b9050602081019050919050565b82818337600083830152505050565b6000611ceb611ce684611c98565b611c7d565b905082815260208101848484011115611d0757611d06611c18565b5b611d12848285611cc9565b509392505050565b600082601f830112611d2f57611d2e611c13565b5b8135611d3f848260208601611cd8565b91505092915050565b60008060008060808587031215611d6257611d6161177b565b5b6000611d70878288016119c8565b9450506020611d81878288016119c8565b9350506040611d9287828801611913565b925050606085013567ffffffffffffffff811115611db357611db2611780565b5b611dbf87828801611d1a565b91505092959194509250565b60008060408385031215611de257611de161177b565b5b6000611df0858286016119c8565b9250506020611e01858286016119c8565b9150509250929050565b7f4e487b7100000000000000000000000000000000000000000000000000000000600052602260045260246000fd5b60006002820490506001821680611e5257607f821691505b602082108103611e6557611e64611e0b565b5b50919050565b6000606082019050611e806000830186611987565b611e8d6020830185611b7d565b611e9a6040830184611987565b949350505050565b7f4e487b7100000000000000000000000000000000000000000000000000000000600052601160045260246000fd5b6000611edc826118f2565b91507fffffffffffffffffffffffffffffffffffffffffffffffffffffffffffffffff8203611f0e57611f0d611ea2565b5b600182019050919050565b600081905092915050565b6000611f2f82611840565b611f398185611f19565b9350611f4981856020860161185c565b80840191505092915050565b6000611f618285611f24565b9150611f6d8284611f24565b91508190509392505050565b600081519050919050565b600082825260208201905092915050565b6000611fa082611f79565b611faa8185611f84565b9350611fba81856020860161185c565b611fc381611886565b840191505092915050565b6000608082019050611fe36000830187611987565b611ff06020830186611987565b611ffd6040830185611b7d565b818103606083015261200f8184611f95565b905095945050505050565b600081519050612029816117b1565b92915050565b6000602082840312156120455761204461177b565b5b60006120538482850161201a565b91505092915050565b7f4e487b7100000000000000000000000000000000000000000000000000000000600052601260045260246000fd5b60006040820190506120a06000830185611987565b6120ad6020830184611b7d565b939250505056fea26469706673582212208fc9d715327e9b08e6aac90ee58f7b60e62ee725408d6a316941a9a56197769764736f6c63430008140033",
  "linkReferences": {},
  "deployedLinkReferences": {}
}