{
  "_format": "hh-sol-artifact-1",
  "contractName": "MyTokenERC20",
  "sourceName": "contracts/MyERC20.sol",
  "abi": [
    {
      "inputs": [],
      "stateMutability": "nonpayable",
      "type": "constructor"
    },
    {
      "inputs": [
        {
          "internalType": "address",
          "name": "spender",
          "type": "address"
        },
        {
          "internalType": "uint256",
          "name": "allowance",
          "type": "uint256"
        },
        {
          "internalType": "uint256",
          "name": "needed",
          "type": "uint256"
        }
      ],
      "name": "ERC20InsufficientAllowance",
      "type": "error"
    },
    {
      "inputs": [
        {
          "internalType": "address",
          "name": "sender",
          "type": "address"
        },
        {
          "internalType": "uint256",
          "name": "balance",
          "type": "uint256"
        },
        {
          "internalType": "uint256",
          "name": "needed",
          "type": "uint256"
        }
      ],
      "name": "ERC20InsufficientBalance",
      "type": "error"
    },
    {
      "inputs": [
        {
          "internalType": "address",
          "name": "approver",
          "type": "address"
        }
      ],
      "name": "ERC20InvalidApprover",
      "type": "error"
    },
    {
      "inputs": [
        {
          "internalType": "address",
          "name": "receiver",
          "type": "address"
        }
      ],
      "name": "ERC20InvalidReceiver",
      "type": "error"
    },
    {
      "inputs": [
        {
          "internalType": "address",
          "name": "sender",
          "type": "address"
        }
      ],
      "name": "ERC20InvalidSender",
      "type": "error"
    },
    {
      "inputs": [
        {
          "internalType": "address",
          "name": "spender",
          "type": "address"
        }
      ],
      "name": "ERC20InvalidSpender",
      "type": "error"
    },
    {
      "inputs": [
        {
          "internalType": "address",
          "name": "owner",
          "type": "address"
        }
      ],
      "name": "OwnableInvalidOwner",
      "type": "error"
    },
    {
      "inputs": [
        {
          "internalType": "address",
          "name": "account",
          "type": "address"
        }
      ],
      "name": "OwnableUnauthorizedAccount",
      "type": "error"
    },
    {
      "anonymous": false,
      "inputs": [
        {
          "indexed": true,
          "internalType": "address",
          "name": "owner",
          "type": "address"
        },
        {
          "indexed": true,
          "internalType": "address",
          "name": "spender",
          "type": "address"
        },
        {
          "indexed": false,
          "internalType": "uint256",
          "name": "value",
          "type": "uint256"
        }
      ],
      "name": "Approval",
      "type": "event"
    },
    {
      "anonymous": false,
      "inputs": [
        {
          "indexed": true,
          "internalType": "address",
          "name": "previousOwner",
          "type": "address"
        },
        {
          "indexed": true,
          "internalType": "address",
          "name": "newOwner",
          "type": "address"
        }
      ],
      "name": "OwnershipTransferred",
      "type": "event"
    },
    {
      "anonymous": false,
      "inputs": [
        {
          "indexed": true,
          "internalType": "address",
          "name": "from",
          "type": "address"
        },
        {
          "indexed": true,
          "internalType": "address",
          "name": "to",
          "type": "address"
        },
        {
          "indexed": false,
          "internalType": "uint256",
          "name": "value",
          "type": "uint256"
        }
      ],
      "name": "Transfer",
      "type": "event"
    },
    {
      "inputs": [
        {
          "internalType": "address",
          "name": "owner",
          "type": "address"
        },
        {
          "internalType": "address",
          "name": "spender",
          "type": "address"
        }
      ],
      "name": "allowance",
      "outputs": [
        {
          "internalType": "uint256",
          "name": "",
          "type": "uint256"
        }
      ],
      "stateMutability": "view",
      "type": "function"
    },
    {
      "inputs": [
        {
          "internalType": "address",
          "name": "spender",
          "type": "address"
        },
        {
          "internalType": "uint256",
          "name": "value",
          "type": "uint256"
        }
      ],
      "name": "approve",
      "outputs": [
        {
          "internalType": "bool",
          "name": "",
          "type": "bool"
        }
      ],
      "stateMutability": "nonpayable",
      "type": "function"
    },
    {
      "inputs": [
        {
          "internalType": "address",
          "name": "account",
          "type": "address"
        }
      ],
      "name": "balanceOf",
      "outputs": [
        {
          "internalType": "uint256",
          "name": "",
          "type": "uint256"
        }
      ],
      "stateMutability": "view",
      "type": "function"
    },
    {
      "inputs": [],
      "name": "decimals",
      "outputs": [
        {
          "internalType": "uint8",
          "name": "",
          "type": "uint8"
        }
      ],
      "stateMutability": "view",
      "type": "function"
    },
    {
      "inputs": [
        {
          "internalType": "address",
          "name": "user",
          "type": "address"
        }
      ],
      "name": "faucetERC20",
      "outputs": [],
      "stateMutability": "nonpayable",
      "type": "function"
    },
    {
      "inputs": [
        {
          "internalType": "address",
          "name": "account",
          "type": "address"
        },
        {
          "internalType": "uint256",
          "name": "amount",
          "type": "uint256"
        }
      ],
      "name": "mint",
      "outputs": [],
      "stateMutability": "nonpayable",
      "type": "function"
    },
    {
      "inputs": [],
      "name": "name",
      "outputs": [
        {
          "internalType": "string",
          "name": "",
          "type": "string"
        }
      ],
      "stateMutability": "view",
      "type": "function"
    },
    {
      "inputs": [],
      "name": "owner",
      "outputs": [
        {
          "internalType": "address",
          "name": "",
          "type": "address"
        }
      ],
      "stateMutability": "view",
      "type": "function"
    },
    {
      "inputs": [],
      "name": "renounceOwnership",
      "outputs": [],
      "stateMutability": "nonpayable",
      "type": "function"
    },
    {
      "inputs": [],
      "name": "symbol",
      "outputs": [
        {
          "internalType": "string",
          "name": "",
          "type": "string"
        }
      ],
      "stateMutability": "view",
      "type": "function"
    },
    {
      "inputs": [],
      "name": "totalSupply",
      "outputs": [
        {
          "internalType": "uint256",
          "name": "",
          "type": "uint256"
        }
      ],
      "stateMutability": "view",
      "type": "function"
    },
    {
      "inputs": [
        {
          "internalType": "address",
          "name": "to",
          "type": "address"
        },
        {
          "internalType": "uint256",
          "name": "value",
          "type": "uint256"
        }
      ],
      "name": "transfer",
      "outputs": [
        {
          "internalType": "bool",
          "name": "",
          "type": "bool"
        }
      ],
      "stateMutability": "nonpayable",
      "type": "function"
    },
    {
      "inputs": [
        {
          "internalType": "address",
          "name": "from",
          "type": "address"
        },
        {
          "internalType": "address",
          "name": "to",
          "type": "address"
        },
        {
          "internalType": "uint256",
          "name": "value",
          "type": "uint256"
        }
      ],
      "name": "transferFrom",
      "outputs": [
        {
          "internalType": "bool",
          "name": "",
          "type": "bool"
        }
      ],
      "stateMutability": "nonpayable",
      "type": "function"
    },
    {
      "inputs": [
        {
          "internalType": "address",
          "name": "newOwner",
          "type": "address"
        }
      ],
      "name": "transferOwnership",
      "outputs": [],
      "stateMutability": "nonpayable",
      "type": "function"
    }
  ],
  "bytecode": "0x60806040523480156200001157600080fd5b50336040518060400160405280600c81526020017f4d79546f6b656e455243323000000000000000000000000000000000000000008152506040518060400160405280600781526020017f4d5445524332300000000000000000000000000000000000000000000000000081525081600390816200009091906200074c565b508060049081620000a291906200074c565b505050600073ffffffffffffffffffffffffffffffffffffffff168173ffffffffffffffffffffffffffffffffffffffff16036200011a5760006040517f1e4fbdf700000000000000000000000000000000000000000000000000000000815260040162000111919062000878565b60405180910390fd5b6200012b816200014f60201b60201c565b5062000149306a084595161401484a0000006200021560201b60201c565b6200096a565b6000600560009054906101000a900473ffffffffffffffffffffffffffffffffffffffff16905081600560006101000a81548173ffffffffffffffffffffffffffffffffffffffff021916908373ffffffffffffffffffffffffffffffffffffffff1602179055508173ffffffffffffffffffffffffffffffffffffffff168173ffffffffffffffffffffffffffffffffffffffff167f8be0079c531659141344cd1fd0a4f28419497f9722a3daafe3b4186f6b6457e060405160405180910390a35050565b600073ffffffffffffffffffffffffffffffffffffffff168273ffffffffffffffffffffffffffffffffffffffff16036200028a5760006040517fec442f0500000000000000000000000000000000000000000000000000000000815260040162000281919062000878565b60405180910390fd5b6200029e60008383620002a260201b60201c565b5050565b600073ffffffffffffffffffffffffffffffffffffffff168373ffffffffffffffffffffffffffffffffffffffff1603620002f8578060026000828254620002eb9190620008c4565b92505081905550620003ce565b60008060008573ffffffffffffffffffffffffffffffffffffffff1673ffffffffffffffffffffffffffffffffffffffff1681526020019081526020016000205490508181101562000387578381836040517fe450d38c0000000000000000000000000000000000000000000000000000000081526004016200037e9392919062000910565b60405180910390fd5b8181036000808673ffffffffffffffffffffffffffffffffffffffff1673ffffffffffffffffffffffffffffffffffffffff16815260200190815260200160002081905550505b600073ffffffffffffffffffffffffffffffffffffffff168273ffffffffffffffffffffffffffffffffffffffff160362000419578060026000828254039250508190555062000466565b806000808473ffffffffffffffffffffffffffffffffffffffff1673ffffffffffffffffffffffffffffffffffffffff168152602001908152602001600020600082825401925050819055505b8173ffffffffffffffffffffffffffffffffffffffff168373ffffffffffffffffffffffffffffffffffffffff167fddf252ad1be2c89b69c2b068fc378daa952ba7f163c4a11628f55a4df523b3ef83604051620004c591906200094d565b60405180910390a3505050565b600081519050919050565b7f4e487b7100000000000000000000000000000000000000000000000000000000600052604160045260246000fd5b7f4e487b7100000000000000000000000000000000000000000000000000000000600052602260045260246000fd5b600060028204905060018216806200055457607f821691505b6020821081036200056a57620005696200050c565b5b50919050565b60008190508160005260206000209050919050565b60006020601f8301049050919050565b600082821b905092915050565b600060088302620005d47fffffffffffffffffffffffffffffffffffffffffffffffffffffffffffffffff8262000595565b620005e0868362000595565b95508019841693508086168417925050509392505050565b6000819050919050565b6000819050919050565b60006200062d620006276200062184620005f8565b62000602565b620005f8565b9050919050565b6000819050919050565b62000649836200060c565b62000661620006588262000634565b848454620005a2565b825550505050565b600090565b6200067862000669565b620006858184846200063e565b505050565b5b81811015620006ad57620006a16000826200066e565b6001810190506200068b565b5050565b601f821115620006fc57620006c68162000570565b620006d18462000585565b81016020851015620006e1578190505b620006f9620006f08562000585565b8301826200068a565b50505b505050565b600082821c905092915050565b6000620007216000198460080262000701565b1980831691505092915050565b60006200073c83836200070e565b9150826002028217905092915050565b6200075782620004d2565b67ffffffffffffffff811115620007735762000772620004dd565b5b6200077f82546200053b565b6200078c828285620006b1565b600060209050601f831160018114620007c45760008415620007af578287015190505b620007bb85826200072e565b8655506200082b565b601f198416620007d48662000570565b60005b82811015620007fe57848901518255600182019150602085019450602081019050620007d7565b868310156200081e57848901516200081a601f8916826200070e565b8355505b6001600288020188555050505b505050505050565b600073ffffffffffffffffffffffffffffffffffffffff82169050919050565b6000620008608262000833565b9050919050565b620008728162000853565b82525050565b60006020820190506200088f600083018462000867565b92915050565b7f4e487b7100000000000000000000000000000000000000000000000000000000600052601160045260246000fd5b6000620008d182620005f8565b9150620008de83620005f8565b9250828201905080821115620008f957620008f862000895565b5b92915050565b6200090a81620005f8565b82525050565b600060608201905062000927600083018662000867565b620009366020830185620008ff565b620009456040830184620008ff565b949350505050565b6000602082019050620009646000830184620008ff565b92915050565b6113a5806200097a6000396000f3fe608060405234801561001057600080fd5b50600436106100ea5760003560e01c8063715018a61161008c578063a9059cbb11610066578063a9059cbb1461023b578063d5b7211b1461026b578063dd62ed3e14610287578063f2fde38b146102b7576100ea565b8063715018a6146101f55780638da5cb5b146101ff57806395d89b411461021d576100ea565b806323b872dd116100c857806323b872dd1461015b578063313ce5671461018b57806340c10f19146101a957806370a08231146101c5576100ea565b806306fdde03146100ef578063095ea7b31461010d57806318160ddd1461013d575b600080fd5b6100f76102d3565b6040516101049190610efb565b60405180910390f35b61012760048036038101906101229190610fb6565b610365565b6040516101349190611011565b60405180910390f35b610145610388565b604051610152919061103b565b60405180910390f35b61017560048036038101906101709190611056565b610392565b6040516101829190611011565b60405180910390f35b6101936103c1565b6040516101a091906110c5565b60405180910390f35b6101c360048036038101906101be9190610fb6565b6103ca565b005b6101df60048036038101906101da91906110e0565b61044d565b6040516101ec919061103b565b60405180910390f35b6101fd610495565b005b6102076104a9565b604051610214919061111c565b60405180910390f35b6102256104d3565b6040516102329190610efb565b60405180910390f35b61025560048036038101906102509190610fb6565b610565565b6040516102629190611011565b60405180910390f35b610285600480360381019061028091906110e0565b610588565b005b6102a1600480360381019061029c9190611137565b6105f1565b6040516102ae919061103b565b60405180910390f35b6102d160048036038101906102cc91906110e0565b610678565b005b6060600380546102e2906111a6565b80601f016020809104026020016040519081016040528092919081815260200182805461030e906111a6565b801561035b5780601f106103305761010080835404028352916020019161035b565b820191906000526020600020905b81548152906001019060200180831161033e57829003601f168201915b5050505050905090565b6000806103706106fe565b905061037d818585610706565b600191505092915050565b6000600254905090565b60008061039d6106fe565b90506103aa858285610718565b6103b58585856107ac565b60019150509392505050565b60006012905090565b3373ffffffffffffffffffffffffffffffffffffffff166103e96104a9565b73ffffffffffffffffffffffffffffffffffffffff161461043f576040517f08c379a000000000000000000000000000000000000000000000000000000000815260040161043690611223565b60405180910390fd5b61044982826108a0565b5050565b60008060008373ffffffffffffffffffffffffffffffffffffffff1673ffffffffffffffffffffffffffffffffffffffff168152602001908152602001600020549050919050565b61049d610922565b6104a760006109a9565b565b6000600560009054906101000a900473ffffffffffffffffffffffffffffffffffffffff16905090565b6060600480546104e2906111a6565b80601f016020809104026020016040519081016040528092919081815260200182805461050e906111a6565b801561055b5780601f106105305761010080835404028352916020019161055b565b820191906000526020600020905b81548152906001019060200180831161053e57829003601f168201915b5050505050905090565b6000806105706106fe565b905061057d8185856107ac565b600191505092915050565b600069d3c21bcecceda10000009050806105a13061044d565b10156105e2576040517f08c379a00000000000000000000000000000000000000000000000000000000081526004016105d9906112b5565b60405180910390fd5b6105ed3083836107ac565b5050565b6000600160008473ffffffffffffffffffffffffffffffffffffffff1673ffffffffffffffffffffffffffffffffffffffff16815260200190815260200160002060008373ffffffffffffffffffffffffffffffffffffffff1673ffffffffffffffffffffffffffffffffffffffff16815260200190815260200160002054905092915050565b610680610922565b600073ffffffffffffffffffffffffffffffffffffffff168173ffffffffffffffffffffffffffffffffffffffff16036106f25760006040517f1e4fbdf70000000000000000000000000000000000000000000000000000000081526004016106e9919061111c565b60405180910390fd5b6106fb816109a9565b50565b600033905090565b6107138383836001610a6f565b505050565b600061072484846105f1565b90507fffffffffffffffffffffffffffffffffffffffffffffffffffffffffffffffff81146107a65781811015610796578281836040517ffb8f41b200000000000000000000000000000000000000000000000000000000815260040161078d939291906112d5565b60405180910390fd5b6107a584848484036000610a6f565b5b50505050565b600073ffffffffffffffffffffffffffffffffffffffff168373ffffffffffffffffffffffffffffffffffffffff160361081e5760006040517f96c6fd1e000000000000000000000000000000000000000000000000000000008152600401610815919061111c565b60405180910390fd5b600073ffffffffffffffffffffffffffffffffffffffff168273ffffffffffffffffffffffffffffffffffffffff16036108905760006040517fec442f05000000000000000000000000000000000000000000000000000000008152600401610887919061111c565b60405180910390fd5b61089b838383610c46565b505050565b600073ffffffffffffffffffffffffffffffffffffffff168273ffffffffffffffffffffffffffffffffffffffff16036109125760006040517fec442f05000000000000000000000000000000000000000000000000000000008152600401610909919061111c565b60405180910390fd5b61091e60008383610c46565b5050565b61092a6106fe565b73ffffffffffffffffffffffffffffffffffffffff166109486104a9565b73ffffffffffffffffffffffffffffffffffffffff16146109a75761096b6106fe565b6040517f118cdaa700000000000000000000000000000000000000000000000000000000815260040161099e919061111c565b60405180910390fd5b565b6000600560009054906101000a900473ffffffffffffffffffffffffffffffffffffffff16905081600560006101000a81548173ffffffffffffffffffffffffffffffffffffffff021916908373ffffffffffffffffffffffffffffffffffffffff1602179055508173ffffffffffffffffffffffffffffffffffffffff168173ffffffffffffffffffffffffffffffffffffffff167f8be0079c531659141344cd1fd0a4f28419497f9722a3daafe3b4186f6b6457e060405160405180910390a35050565b600073ffffffffffffffffffffffffffffffffffffffff168473ffffffffffffffffffffffffffffffffffffffff1603610ae15760006040517fe602df05000000000000000000000000000000000000000000000000000000008152600401610ad8919061111c565b60405180910390fd5b600073ffffffffffffffffffffffffffffffffffffffff168373ffffffffffffffffffffffffffffffffffffffff1603610b535760006040517f94280d62000000000000000000000000000000000000000000000000000000008152600401610b4a919061111c565b60405180910390fd5b81600160008673ffffffffffffffffffffffffffffffffffffffff1673ffffffffffffffffffffffffffffffffffffffff16815260200190815260200160002060008573ffffffffffffffffffffffffffffffffffffffff1673ffffffffffffffffffffffffffffffffffffffff168152602001908152602001600020819055508015610c40578273ffffffffffffffffffffffffffffffffffffffff168473ffffffffffffffffffffffffffffffffffffffff167f8c5be1e5ebec7d5bd14f71427d1e84f3dd0314c0f7b2291e5b200ac8c7c3b92584604051610c37919061103b565b60405180910390a35b50505050565b600073ffffffffffffffffffffffffffffffffffffffff168373ffffffffffffffffffffffffffffffffffffffff1603610c98578060026000828254610c8c919061133b565b92505081905550610d6b565b60008060008573ffffffffffffffffffffffffffffffffffffffff1673ffffffffffffffffffffffffffffffffffffffff16815260200190815260200160002054905081811015610d24578381836040517fe450d38c000000000000000000000000000000000000000000000000000000008152600401610d1b939291906112d5565b60405180910390fd5b8181036000808673ffffffffffffffffffffffffffffffffffffffff1673ffffffffffffffffffffffffffffffffffffffff16815260200190815260200160002081905550505b600073ffffffffffffffffffffffffffffffffffffffff168273ffffffffffffffffffffffffffffffffffffffff1603610db45780600260008282540392505081905550610e01565b806000808473ffffffffffffffffffffffffffffffffffffffff1673ffffffffffffffffffffffffffffffffffffffff168152602001908152602001600020600082825401925050819055505b8173ffffffffffffffffffffffffffffffffffffffff168373ffffffffffffffffffffffffffffffffffffffff167fddf252ad1be2c89b69c2b068fc378daa952ba7f163c4a11628f55a4df523b3ef83604051610e5e919061103b565b60405180910390a3505050565b600081519050919050565b600082825260208201905092915050565b60005b83811015610ea5578082015181840152602081019050610e8a565b60008484015250505050565b6000601f19601f8301169050919050565b6000610ecd82610e6b565b610ed78185610e76565b9350610ee7818560208601610e87565b610ef081610eb1565b840191505092915050565b60006020820190508181036000830152610f158184610ec2565b905092915050565b600080fd5b600073ffffffffffffffffffffffffffffffffffffffff82169050919050565b6000610f4d82610f22565b9050919050565b610f5d81610f42565b8114610f6857600080fd5b50565b600081359050610f7a81610f54565b92915050565b6000819050919050565b610f9381610f80565b8114610f9e57600080fd5b50565b600081359050610fb081610f8a565b92915050565b60008060408385031215610fcd57610fcc610f1d565b5b6000610fdb85828601610f6b565b9250506020610fec85828601610fa1565b9150509250929050565b60008115159050919050565b61100b81610ff6565b82525050565b60006020820190506110266000830184611002565b92915050565b61103581610f80565b82525050565b6000602082019050611050600083018461102c565b92915050565b60008060006060848603121561106f5761106e610f1d565b5b600061107d86828701610f6b565b935050602061108e86828701610f6b565b925050604061109f86828701610fa1565b9150509250925092565b600060ff82169050919050565b6110bf816110a9565b82525050565b60006020820190506110da60008301846110b6565b92915050565b6000602082840312156110f6576110f5610f1d565b5b600061110484828501610f6b565b91505092915050565b61111681610f42565b82525050565b6000602082019050611131600083018461110d565b92915050565b6000806040838503121561114e5761114d610f1d565b5b600061115c85828601610f6b565b925050602061116d85828601610f6b565b9150509250929050565b7f4e487b7100000000000000000000000000000000000000000000000000000000600052602260045260246000fd5b600060028204905060018216806111be57607f821691505b6020821081036111d1576111d0611177565b5b50919050565b7f4f6e6c792061646d696e20697320616c6c6f7765640000000000000000000000600082015250565b600061120d601583610e76565b9150611218826111d7565b602082019050919050565b6000602082019050818103600083015261123c81611200565b9050919050565b7f436f6e747261637420646f6573206e6f74206861766520656e6f75676820746f60008201527f6b656e7320666f72206661756365740000000000000000000000000000000000602082015250565b600061129f602f83610e76565b91506112aa82611243565b604082019050919050565b600060208201905081810360008301526112ce81611292565b9050919050565b60006060820190506112ea600083018661110d565b6112f7602083018561102c565b611304604083018461102c565b949350505050565b7f4e487b7100000000000000000000000000000000000000000000000000000000600052601160045260246000fd5b600061134682610f80565b915061135183610f80565b92508282019050808211156113695761136861130c565b5b9291505056fea26469706673582212200dca3f8651d80581439ef841d2efd4bd8cfade55bfa02382404ef6b8496ba5ae64736f6c63430008140033",
  "linkReferences": {},
  "deployedLinkReferences": {}
}