{
  "_format": "hh-sol-artifact-1",
  "contractName": "Logic",
  "sourceName": "contracts/Logic.sol",
  "abi": [
    {
      "inputs": [
        {
          "internalType": "address",
          "name": "_tokenERC20",
          "type": "address"
        },
        {
          "internalType": "address",
          "name": "_nft",
          "type": "address"
        }
      ],
      "stateMutability": "nonpayable",
      "type": "constructor"
    },
    {
      "anonymous": false,
      "inputs": [
        {
          "indexed": true,
          "internalType": "address",
          "name": "user",
          "type": "address"
        },
        {
          "indexed": false,
          "internalType": "uint256",
          "name": "amount",
          "type": "uint256"
        },
        {
          "indexed": false,
          "internalType": "uint256",
          "name": "depositTime",
          "type": "uint256"
        }
      ],
      "name": "Deposit",
      "type": "event"
    },
    {
      "anonymous": false,
      "inputs": [
        {
          "indexed": true,
          "internalType": "address",
          "name": "user",
          "type": "address"
        },
        {
          "indexed": false,
          "internalType": "uint256",
          "name": "tokenId",
          "type": "uint256"
        }
      ],
      "name": "MintNFT",
      "type": "event"
    },
    {
      "anonymous": false,
      "inputs": [
        {
          "indexed": true,
          "internalType": "address",
          "name": "user",
          "type": "address"
        },
        {
          "indexed": false,
          "internalType": "uint256",
          "name": "amount",
          "type": "uint256"
        },
        {
          "indexed": false,
          "internalType": "uint256",
          "name": "reward",
          "type": "uint256"
        },
        {
          "indexed": false,
          "internalType": "uint256",
          "name": "timestamp",
          "type": "uint256"
        }
      ],
      "name": "Withdraw",
      "type": "event"
    },
    {
      "inputs": [],
      "name": "INTEREST_RATE",
      "outputs": [
        {
          "internalType": "uint256",
          "name": "",
          "type": "uint256"
        }
      ],
      "stateMutability": "view",
      "type": "function"
    },
    {
      "inputs": [],
      "name": "INTEREST_RATE_INCREMENT",
      "outputs": [
        {
          "internalType": "uint256",
          "name": "",
          "type": "uint256"
        }
      ],
      "stateMutability": "view",
      "type": "function"
    },
    {
      "inputs": [],
      "name": "LOCK_TIME",
      "outputs": [
        {
          "internalType": "uint256",
          "name": "",
          "type": "uint256"
        }
      ],
      "stateMutability": "view",
      "type": "function"
    },
    {
      "inputs": [],
      "name": "NFT_THRESHOLD",
      "outputs": [
        {
          "internalType": "uint256",
          "name": "",
          "type": "uint256"
        }
      ],
      "stateMutability": "view",
      "type": "function"
    },
    {
      "inputs": [
        {
          "internalType": "address",
          "name": "spender",
          "type": "address"
        }
      ],
      "name": "calculateInterest",
      "outputs": [
        {
          "internalType": "uint256",
          "name": "",
          "type": "uint256"
        }
      ],
      "stateMutability": "view",
      "type": "function"
    },
    {
      "inputs": [],
      "name": "claimReward",
      "outputs": [],
      "stateMutability": "nonpayable",
      "type": "function"
    },
    {
      "inputs": [
        {
          "internalType": "uint256",
          "name": "amount",
          "type": "uint256"
        }
      ],
      "name": "deposit",
      "outputs": [],
      "stateMutability": "nonpayable",
      "type": "function"
    },
    {
      "inputs": [
        {
          "internalType": "uint256",
          "name": "tokenId",
          "type": "uint256"
        }
      ],
      "name": "depositNFT",
      "outputs": [],
      "stateMutability": "nonpayable",
      "type": "function"
    },
    {
      "inputs": [
        {
          "internalType": "address",
          "name": "user",
          "type": "address"
        }
      ],
      "name": "getDepositAmount",
      "outputs": [
        {
          "internalType": "uint256",
          "name": "",
          "type": "uint256"
        }
      ],
      "stateMutability": "view",
      "type": "function"
    },
    {
      "inputs": [
        {
          "internalType": "address",
          "name": "user",
          "type": "address"
        }
      ],
      "name": "getDepositedNFTCount",
      "outputs": [
        {
          "internalType": "uint256",
          "name": "",
          "type": "uint256"
        }
      ],
      "stateMutability": "view",
      "type": "function"
    },
    {
      "inputs": [
        {
          "internalType": "address",
          "name": "user",
          "type": "address"
        }
      ],
      "name": "getInterestRate",
      "outputs": [
        {
          "internalType": "uint256",
          "name": "",
          "type": "uint256"
        }
      ],
      "stateMutability": "view",
      "type": "function"
    },
    {
      "inputs": [],
      "name": "nft",
      "outputs": [
        {
          "internalType": "contract MyTokenERC721",
          "name": "",
          "type": "address"
        }
      ],
      "stateMutability": "view",
      "type": "function"
    },
    {
      "inputs": [],
      "name": "owner",
      "outputs": [
        {
          "internalType": "address",
          "name": "",
          "type": "address"
        }
      ],
      "stateMutability": "view",
      "type": "function"
    },
    {
      "inputs": [],
      "name": "tokenERC20",
      "outputs": [
        {
          "internalType": "contract MyTokenERC20",
          "name": "",
          "type": "address"
        }
      ],
      "stateMutability": "view",
      "type": "function"
    },
    {
      "inputs": [
        {
          "internalType": "address",
          "name": "",
          "type": "address"
        }
      ],
      "name": "users",
      "outputs": [
        {
          "internalType": "uint256",
          "name": "depositAmount",
          "type": "uint256"
        },
        {
          "internalType": "uint256",
          "name": "depositTime",
          "type": "uint256"
        },
        {
          "internalType": "uint256",
          "name": "interestRate",
          "type": "uint256"
        },
        {
          "internalType": "uint256",
          "name": "nftCount",
          "type": "uint256"
        }
      ],
      "stateMutability": "view",
      "type": "function"
    },
    {
      "inputs": [],
      "name": "withdraw",
      "outputs": [],
      "stateMutability": "nonpayable",
      "type": "function"
    },
    {
      "inputs": [
        {
          "internalType": "uint256",
          "name": "tokenId",
          "type": "uint256"
        }
      ],
      "name": "withdrawNFT",
      "outputs": [],
      "stateMutability": "nonpayable",
      "type": "function"
    }
  ],
  "bytecode": "0x60806040523480156200001157600080fd5b506040516200199b3803806200199b83398181016040528101906200003791906200016b565b816000806101000a81548173ffffffffffffffffffffffffffffffffffffffff021916908373ffffffffffffffffffffffffffffffffffffffff16021790555080600160006101000a81548173ffffffffffffffffffffffffffffffffffffffff021916908373ffffffffffffffffffffffffffffffffffffffff16021790555033600260006101000a81548173ffffffffffffffffffffffffffffffffffffffff021916908373ffffffffffffffffffffffffffffffffffffffff1602179055505050620001b2565b600080fd5b600073ffffffffffffffffffffffffffffffffffffffff82169050919050565b6000620001338262000106565b9050919050565b620001458162000126565b81146200015157600080fd5b50565b60008151905062000165816200013a565b92915050565b6000806040838503121562000185576200018462000101565b5b6000620001958582860162000154565b9250506020620001a88582860162000154565b9150509250929050565b6117d980620001c26000396000f3fe608060405234801561001057600080fd5b506004361061010b5760003560e01c80639d143e8e116100a2578063b8ba16fd11610071578063b8ba16fd14610273578063c04757b5146102a3578063d3ea0f89146102c1578063e11932cf146102f1578063e91a7ca6146103215761010b565b80639d143e8e146101fc578063a87430ba1461021a578063b6b55f251461024d578063b88a802f146102695761010b565b806347ccca02116100de57806347ccca02146101845780635b72a33a146101a25780638da5cb5b146101c057806393c49484146101de5761010b565b8063023245d71461011057806311de2bb21461012c5780633ccfd60b1461015c578063413d9c3a14610166575b600080fd5b61012a60048036038101906101259190610fa8565b61033d565b005b61014660048036038101906101419190611033565b61049d565b604051610153919061106f565b60405180910390f35b6101646104e9565b005b61016e61077c565b60405161017b919061106f565b60405180910390f35b61018c610782565b60405161019991906110e9565b60405180910390f35b6101aa6107a8565b6040516101b7919061106f565b60405180910390f35b6101c86107ad565b6040516101d59190611113565b60405180910390f35b6101e66107d3565b6040516101f3919061106f565b60405180910390f35b6102046107e1565b604051610211919061114f565b60405180910390f35b610234600480360381019061022f9190611033565b610805565b604051610244949392919061116a565b60405180910390f35b61026760048036038101906102629190610fa8565b610835565b005b610271610a70565b005b61028d60048036038101906102889190611033565b610c4a565b60405161029a919061106f565b60405180910390f35b6102ab610c96565b6040516102b8919061106f565b60405180910390f35b6102db60048036038101906102d69190611033565b610c9b565b6040516102e8919061106f565b60405180910390f35b61030b60048036038101906103069190611033565b610ce7565b604051610318919061106f565b60405180910390f35b61033b60048036038101906103369190610fa8565b610daf565b005b6000600360003373ffffffffffffffffffffffffffffffffffffffff1673ffffffffffffffffffffffffffffffffffffffff168152602001908152602001600020905060008160030154116103c7576040517f08c379a00000000000000000000000000000000000000000000000000000000081526004016103be9061120c565b60405180910390fd5b600160009054906101000a900473ffffffffffffffffffffffffffffffffffffffff1673ffffffffffffffffffffffffffffffffffffffff166323b872dd3033856040518463ffffffff1660e01b81526004016104269392919061122c565b600060405180830381600087803b15801561044057600080fd5b505af1158015610454573d6000803e3d6000fd5b50505050600181600301600082825461046d9190611292565b925050819055508060030154600261048591906112c6565b60086104919190611308565b81600201819055505050565b6000600360008373ffffffffffffffffffffffffffffffffffffffff1673ffffffffffffffffffffffffffffffffffffffff168152602001908152602001600020600301549050919050565b6000600360003373ffffffffffffffffffffffffffffffffffffffff1673ffffffffffffffffffffffffffffffffffffffff16815260200190815260200160002090506000816000015411610573576040517f08c379a000000000000000000000000000000000000000000000000000000000815260040161056a90611388565b60405180910390fd5b61012c81600101546105859190611308565b4210156105c7576040517f08c379a00000000000000000000000000000000000000000000000000000000081526004016105be906113f4565b60405180910390fd5b60006105d233610ce7565b905060008054906101000a900473ffffffffffffffffffffffffffffffffffffffff1673ffffffffffffffffffffffffffffffffffffffff166324cea5b982336040518363ffffffff1660e01b815260040161062f929190611414565b600060405180830381600087803b15801561064957600080fd5b505af115801561065d573d6000803e3d6000fd5b5050505060008054906101000a900473ffffffffffffffffffffffffffffffffffffffff1673ffffffffffffffffffffffffffffffffffffffff1663a9059cbb3384600001546040518363ffffffff1660e01b81526004016106c092919061143d565b6020604051808303816000875af11580156106df573d6000803e3d6000fd5b505050506040513d601f19601f82011682018060405250810190610703919061149e565b503373ffffffffffffffffffffffffffffffffffffffff167f02f25270a4d87bea75db541cdfe559334a275b4a233520ed6c0a2429667cca9483600001548342604051610752939291906114cb565b60405180910390a26000826000018190555060008260010181905550600082600201819055505050565b61012c81565b600160009054906101000a900473ffffffffffffffffffffffffffffffffffffffff1681565b600881565b600260009054906101000a900473ffffffffffffffffffffffffffffffffffffffff1681565b69d3c21bcecceda100000081565b60008054906101000a900473ffffffffffffffffffffffffffffffffffffffff1681565b60036020528060005260406000206000915090508060000154908060010154908060020154908060030154905084565b60008111610878576040517f08c379a000000000000000000000000000000000000000000000000000000000815260040161086f90611574565b60405180910390fd5b6000600360003373ffffffffffffffffffffffffffffffffffffffff1673ffffffffffffffffffffffffffffffffffffffff16815260200190815260200160002090506000816003015460026108ce91906112c6565b60086108da9190611308565b905060008054906101000a900473ffffffffffffffffffffffffffffffffffffffff1673ffffffffffffffffffffffffffffffffffffffff166323b872dd3330866040518463ffffffff1660e01b81526004016109399392919061122c565b6020604051808303816000875af1158015610958573d6000803e3d6000fd5b505050506040513d601f19601f8201168201806040525081019061097c919061149e565b50828260000160008282546109919190611308565b925050819055504282600101819055508082600201819055503373ffffffffffffffffffffffffffffffffffffffff167f90890809c654f11d6e72a28fa60149770a0d11ec6c92319d6ceb2bb0a4ea1a1584426040516109f2929190611594565b60405180910390a269d3c21bcecceda1000000826000015410610a6b576000610a19610ec8565b90503373ffffffffffffffffffffffffffffffffffffffff167f1f89f147a58d1673945cf416187db98efc8208408c011b91887acd59fd8523c382604051610a61919061106f565b60405180910390a2505b505050565b6000600360003373ffffffffffffffffffffffffffffffffffffffff1673ffffffffffffffffffffffffffffffffffffffff16815260200190815260200160002090506000816000015411610afa576040517f08c379a0000000000000000000000000000000000000000000000000000000008152600401610af190611609565b60405180910390fd5b61012c8160010154610b0c9190611308565b421015610b4e576040517f08c379a0000000000000000000000000000000000000000000000000000000008152600401610b4590611675565b60405180910390fd5b6000610b5933610ce7565b905060008111610b9e576040517f08c379a0000000000000000000000000000000000000000000000000000000008152600401610b95906116e1565b60405180910390fd5b60008054906101000a900473ffffffffffffffffffffffffffffffffffffffff1673ffffffffffffffffffffffffffffffffffffffff1663a9059cbb33836040518363ffffffff1660e01b8152600401610bf992919061143d565b6020604051808303816000875af1158015610c18573d6000803e3d6000fd5b505050506040513d601f19601f82011682018060405250810190610c3c919061149e565b504282600101819055505050565b6000600360008373ffffffffffffffffffffffffffffffffffffffff1673ffffffffffffffffffffffffffffffffffffffff168152602001908152602001600020600001549050919050565b600281565b6000600360008373ffffffffffffffffffffffffffffffffffffffff1673ffffffffffffffffffffffffffffffffffffffff168152602001908152602001600020600201549050919050565b600080600360008473ffffffffffffffffffffffffffffffffffffffff1673ffffffffffffffffffffffffffffffffffffffff16815260200190815260200160002060405180608001604052908160008201548152602001600182015481526020016002820154815260200160038201548152505090506000816020015142610d709190611292565b9050600063bbf81e008284604001518560000151610d8e91906112c6565b610d9891906112c6565b610da29190611730565b9050809350505050919050565b6000600360003373ffffffffffffffffffffffffffffffffffffffff1673ffffffffffffffffffffffffffffffffffffffff1681526020019081526020016000209050600160009054906101000a900473ffffffffffffffffffffffffffffffffffffffff1673ffffffffffffffffffffffffffffffffffffffff166323b872dd3330856040518463ffffffff1660e01b8152600401610e519392919061122c565b600060405180830381600087803b158015610e6b57600080fd5b505af1158015610e7f573d6000803e3d6000fd5b505050506001816003016000828254610e989190611308565b9250508190555080600301546002610eb091906112c6565b6008610ebc9190611308565b81600201819055505050565b6000600160009054906101000a900473ffffffffffffffffffffffffffffffffffffffff1673ffffffffffffffffffffffffffffffffffffffff16636a627842336040518263ffffffff1660e01b8152600401610f259190611113565b6020604051808303816000875af1158015610f44573d6000803e3d6000fd5b505050506040513d601f19601f82011682018060405250810190610f689190611776565b905090565b600080fd5b6000819050919050565b610f8581610f72565b8114610f9057600080fd5b50565b600081359050610fa281610f7c565b92915050565b600060208284031215610fbe57610fbd610f6d565b5b6000610fcc84828501610f93565b91505092915050565b600073ffffffffffffffffffffffffffffffffffffffff82169050919050565b600061100082610fd5565b9050919050565b61101081610ff5565b811461101b57600080fd5b50565b60008135905061102d81611007565b92915050565b60006020828403121561104957611048610f6d565b5b60006110578482850161101e565b91505092915050565b61106981610f72565b82525050565b60006020820190506110846000830184611060565b92915050565b6000819050919050565b60006110af6110aa6110a584610fd5565b61108a565b610fd5565b9050919050565b60006110c182611094565b9050919050565b60006110d3826110b6565b9050919050565b6110e3816110c8565b82525050565b60006020820190506110fe60008301846110da565b92915050565b61110d81610ff5565b82525050565b60006020820190506111286000830184611104565b92915050565b6000611139826110b6565b9050919050565b6111498161112e565b82525050565b60006020820190506111646000830184611140565b92915050565b600060808201905061117f6000830187611060565b61118c6020830186611060565b6111996040830185611060565b6111a66060830184611060565b95945050505050565b600082825260208201905092915050565b7f4e6f204e46547320746f20776974686472617700000000000000000000000000600082015250565b60006111f66013836111af565b9150611201826111c0565b602082019050919050565b60006020820190508181036000830152611225816111e9565b9050919050565b60006060820190506112416000830186611104565b61124e6020830185611104565b61125b6040830184611060565b949350505050565b7f4e487b7100000000000000000000000000000000000000000000000000000000600052601160045260246000fd5b600061129d82610f72565b91506112a883610f72565b92508282039050818111156112c0576112bf611263565b5b92915050565b60006112d182610f72565b91506112dc83610f72565b92508282026112ea81610f72565b9150828204841483151761130157611300611263565b5b5092915050565b600061131382610f72565b915061131e83610f72565b925082820190508082111561133657611335611263565b5b92915050565b7f4e6f206465706f73697420746f20776974686472617700000000000000000000600082015250565b60006113726016836111af565b915061137d8261133c565b602082019050919050565b600060208201905081810360008301526113a181611365565b9050919050565b7f4c6f636b2074696d65206e6f7420706173736564000000000000000000000000600082015250565b60006113de6014836111af565b91506113e9826113a8565b602082019050919050565b6000602082019050818103600083015261140d816113d1565b9050919050565b60006040820190506114296000830185611060565b6114366020830184611104565b9392505050565b60006040820190506114526000830185611104565b61145f6020830184611060565b9392505050565b60008115159050919050565b61147b81611466565b811461148657600080fd5b50565b60008151905061149881611472565b92915050565b6000602082840312156114b4576114b3610f6d565b5b60006114c284828501611489565b91505092915050565b60006060820190506114e06000830186611060565b6114ed6020830185611060565b6114fa6040830184611060565b949350505050565b7f4465706f73697420616d6f756e742073686f756c64206265206772656174657260008201527f207468616e203000000000000000000000000000000000000000000000000000602082015250565b600061155e6027836111af565b915061156982611502565b604082019050919050565b6000602082019050818103600083015261158d81611551565b9050919050565b60006040820190506115a96000830185611060565b6115b66020830184611060565b9392505050565b7f616d6f756e74206d7573742062652067726561746572207468616e207a65726f600082015250565b60006115f36020836111af565b91506115fe826115bd565b602082019050919050565b60006020820190508181036000830152611622816115e6565b9050919050565b7f546f6b656e7320617265206c6f636b6564000000000000000000000000000000600082015250565b600061165f6011836111af565b915061166a82611629565b602082019050919050565b6000602082019050818103600083015261168e81611652565b9050919050565b7f4e6f20696e746572657374206163637275656400000000000000000000000000600082015250565b60006116cb6013836111af565b91506116d682611695565b602082019050919050565b600060208201905081810360008301526116fa816116be565b9050919050565b7f4e487b7100000000000000000000000000000000000000000000000000000000600052601260045260246000fd5b600061173b82610f72565b915061174683610f72565b92508261175657611755611701565b5b828204905092915050565b60008151905061177081610f7c565b92915050565b60006020828403121561178c5761178b610f6d565b5b600061179a84828501611761565b9150509291505056fea26469706673582212201d0558aca49a5787939964d91168fcc21592488b4be70eececdeda335915ec2564736f6c63430008140033",
  "linkReferences": {},
  "deployedLinkReferences": {}
}